{"project/contracts/examples/SequentialEncodingExample.sol":{"SequentialEncodingExample":{"abi":[{"inputs":[],"name":"decodeMapThenMoreData","outputs":[{"internalType":"uint256","name":"mapValueA","type":"uint256"},{"internalType":"uint256","name":"mapValueB","type":"uint256"},{"internalType":"bool","name":"hasMoreData","type":"bool"},{"internalType":"uint256","name":"afterMapNumber","type":"uint256"},{"internalType":"string","name":"afterMapString","type":"string"}],"stateMutability":"pure","type":"function"},{"inputs":[],"name":"decodeMismatchedCount","outputs":[{"internalType":"uint256","name":"mapEntryCount","type":"uint256"},{"internalType":"uint256","name":"firstValue","type":"uint256"},{"internalType":"uint256","name":"secondValue","type":"uint256"},{"internalType":"bool","name":"hasDataAfterMap","type":"bool"},{"internalType":"string","name":"extraKey","type":"string"},{"internalType":"uint256","name":"extraValue","type":"uint256"}],"stateMutability":"pure","type":"function"},{"inputs":[],"name":"demonstrateSequentialEncoding","outputs":[{"internalType":"bytes","name":"justMap","type":"bytes"},{"internalType":"bytes","name":"mapPlusOne","type":"bytes"},{"internalType":"bytes","name":"mapPlusTwo","type":"bytes"},{"internalType":"bool","name":"lengthsMatch","type":"bool"}],"stateMutability":"pure","type":"function"},{"inputs":[],"name":"encodeMapThenMoreData","outputs":[{"internalType":"bytes","name":"","type":"bytes"}],"stateMutability":"pure","type":"function"},{"inputs":[],"name":"encodeMismatchedCount","outputs":[{"internalType":"bytes","name":"","type":"bytes"}],"stateMutability":"pure","type":"function"},{"inputs":[],"name":"encodeProperlyWithArray","outputs":[{"internalType":"bytes","name":"","type":"bytes"}],"stateMutability":"pure","type":"function"},{"inputs":[],"name":"encodeProperlyWithOuterMap","outputs":[{"internalType":"bytes","name":"","type":"bytes"}],"stateMutability":"pure","type":"function"}],"evm":{"bytecode":{"linkReferences":{},"object":"608060405234801561000f575f80fd5b506117f08061001d5f395ff3fe608060405234801561000f575f80fd5b506004361061007a575f3560e01c80639de023a0116100585780639de023a0146100cd578063bd1a9b65146100d5578063daad53d8146100ef578063faf193e9146100f7575f80fd5b80633578fce71461007e5780633b996f2e146100a057806371eca3f9146100b8575b5f80fd5b6100866100ff565b6040516100979594939291906115fd565b60405180910390f35b6100a86101eb565b6040516100979493929190611634565b6100c0610327565b6040516100979190611680565b6100c0610466565b6100dd6104f6565b60405161009796959493929190611699565b6100c0610596565b6100c061064b565b5f805f8060605f61010e61064b565b604080518082018252606081525f602091820181905282518084019093528383529082018190529192509061014282610663565b90508060021461018e5760405162461bcd60e51b81526020600482015260126024820152714578706563746564203220656e747269657360701b60448201526064015b60405180910390fd5b610197826107c2565b506101a1826109e7565b97506101ac826107c2565b506101b6826109e7565b825151602084015191985011955085156101e1576101d3826109e7565b94506101de826107c2565b93505b5050509091929394565b60608060605f806101fa610bce565b9050610207816002610c13565b5061022b81604051806040016040528060018152602001606160f81b815250610dd5565b50610237816001610fed565b5061025b81604051806040016040528060018152602001603160f91b815250610dd5565b50610267816002610fed565b506102718161133f565b94505f61027c610bce565b9050610289816002610c13565b506102ad81604051806040016040528060018152602001606160f81b815250610dd5565b506102b9816001610fed565b506102dd81604051806040016040528060018152602001603160f91b815250610dd5565b506102e9816002610fed565b506102f581602a610fed565b506102ff8161133f565b945061030961064b565b93508551855111801561031d575084518451115b9250505090919293565b60605f610332610bce565b905061033f816003610c13565b5061036681604051806040016040528060048152602001636461746160e01b815250610dd5565b50610372816002610c13565b5061039681604051806040016040528060018152602001606160f81b815250610dd5565b506103a2816001610fed565b506103c681604051806040016040528060018152602001603160f91b815250610dd5565b506103d2816002610fed565b506103fb8160405180604001604052806006815260200165373ab6b132b960d11b815250610dd5565b5061040781602a610fed565b5061042e81604051806040016040528060048152602001631d195e1d60e21b815250610dd5565b50610456816040518060400160405280600581526020016468656c6c6f60d81b815250610dd5565b506104608161133f565b91505090565b60605f610471610bce565b905061047e8160036113bf565b5061048a816002610c13565b506104ae81604051806040016040528060018152602001606160f81b815250610dd5565b506104ba816001610fed565b506104de81604051806040016040528060018152602001603160f91b815250610dd5565b506104ea816002610fed565b5061042e81602a610fed565b5f805f8060605f80610506610596565b604080518082018252606081525f602091820181905282518084019093528383529082015290915061053781610663565b9750610542816107c2565b5061054c816109e7565b9650610557816107c2565b50610561816109e7565b8151516020830151919750119450841561058c5761057e816107c2565b9350610589816109e7565b92505b5050909192939495565b60605f6105a1610bce565b90506105ae816002610c13565b506105d68160405180604001604052806005815260200164199a5c9cdd60da1b815250610dd5565b506105e2816001610fed565b5061060b81604051806040016040528060068152602001651cd958dbdb9960d21b815250610dd5565b50610617816002610fed565b5061063f81604051806040016040528060058152602001641d1a1a5c9960da1b815250610dd5565b50610456816003610fed565b60605f610656610bce565b905061048a816002610c13565b5f8061066e8361143f565b602084018051919250610680826116ec565b905250608060ff8216108015906106a7575061069e60806010611704565b60ff168160ff16105b156106c1576106b760808261171d565b60ff169392505050565b60d71960ff821601610700578251602084018051906106df826116ec565b9052815181106106f1576106f1611736565b016020015160f81c9392505050565b60d81960ff82160161079057825160208401515f919061072190600161174a565b8151811061073157610731611736565b602001015160f81c60f81b60f81c60ff166008855f015186602001518151811061075d5761075d611736565b602001015160f81c60f81b60f81c60ff16901b179050600284602001818151610786919061174a565b9052509392505050565b60405162461bcd60e51b815260206004820152600760248201526604e6f74206d61760cc1b6044820152606401610185565b60605f6107ce8361143f565b6020840180519192506107e0826116ec565b9052505f60a060ff83161080159061080857506107ff60a06020611704565b60ff168260ff16105b156108225761081860a08361171d565b60ff169050610921565b60d11960ff83160161086157835160208501805190610840826116ec565b90528151811061085257610852611736565b016020015160f81c9050610921565b60d21960ff8316016108ec578351602085015161087f90600161174a565b8151811061088f5761088f611736565b602001015160f81c60f81b60f81c60ff166008855f01518660200151815181106108bb576108bb611736565b602001015160f81c60f81b60f81c60ff16901b1790506002846020018181516108e4919061174a565b905250610921565b60405162461bcd60e51b815260206004820152600a6024820152694e6f7420737472696e6760b01b6044820152606401610185565b5f8167ffffffffffffffff81111561093b5761093b61175d565b6040519080825280601f01601f191660200182016040528015610965576020820181803683370190505b509050602085015160208651010160208201602084045f5b818110156109995760208102848101519084015260010161097d565b50601f851680156109c657602082028481015160016008840290811b5f1901610100919091031b16908401525b5050505081856020018181516109dc919061174a565b905250949350505050565b5f806109f28361143f565b602084018051919250610a04826116ec565b905250607f60ff821611610a1b5760ff1692915050565b60c31960ff821601610a39578251602084018051906106df826116ec565b60c41960ff821601610a76575f602084015160208551010160018101515f1a81515f1a60081b17915050600284602001818151610786919061174a565b60c51960ff821601610ac9575f602084015160208551010160038101515f1a60028201515f1a60081b60018301515f1a60101b83515f1a60181b171717915050600484602001818151610786919061174a565b60c61960ff821601610b1a5760208381015184515f92910101815b6008811015610b0557808201515f1a8360081b179250600181019050610ae4565b5050600884602001818151610786919061174a565b60c71960ff821601610b6b5760208381015184515f92910101815b6010811015610b5657808201515f1a8360081b179250600181019050610b35565b5050601084602001818151610786919061174a565b60c81960ff821601610b9357602083810180518551810183015192919061078690839061174a565b60405162461bcd60e51b815260206004820152601060248201526f496e76616c69642075696e742074616760801b6044820152606401610185565b60408051808201825260608082525f6020830152825161010081850181815261016083019095529293909283928301818036833750505081525f602090910152919050565b60408051808201909152606081525f6020820152600f8211610c8b57610c3a8360016114a2565b610c4582608061174a565b60f81b835f0151846020018051809190610c5e906116ec565b905281518110610c7057610c70611736565b60200101906001600160f81b03191690815f1a905350610dcc565b60ff8211610cf657610c9e8360026114a2565b8251602084018051601b60fb1b9291610cb6826116ec565b905281518110610cc857610cc8611736565b60200101906001600160f81b03191690815f1a905350825160208401805160f885901b9291610c5e826116ec565b610d018360036114a2565b825160208401805160d960f81b9291610d19826116ec565b905281518110610d2b57610d2b611736565b60200101906001600160f81b03191690815f1a90535082516020840180516001600160f81b031960f086901b169291610d63826116ec565b905281518110610d7557610d75611736565b60200101906001600160f81b03191690815f1a905350825160208401805160f885901b9291610da3826116ec565b905281518110610db557610db5611736565b60200101906001600160f81b03191690815f1a9053505b50815b92915050565b60408051808201909152606081525f602082015281518290601f8111610e5a57610e0985610e0483600161174a565b6114a2565b610e148160a061174a565b60f81b855f0151866020018051809190610e2d906116ec565b905281518110610e3f57610e3f611736565b60200101906001600160f81b03191690815f1a905350610fa3565b60ff8111610ec957610e7185610e0483600261174a565b8451602086018051606960f91b9291610e89826116ec565b905281518110610e9b57610e9b611736565b60200101906001600160f81b03191690815f1a905350845160208601805160f884901b9291610e2d826116ec565b610ed885610e0483600361174a565b845160208601805160d360f81b9291610ef0826116ec565b905281518110610f0257610f02611736565b60200101906001600160f81b03191690815f1a90535084516020860180516001600160f81b031960f085901b169291610f3a826116ec565b905281518110610f4c57610f4c611736565b60200101906001600160f81b03191690815f1a905350845160208601805160f884901b9291610f7a826116ec565b905281518110610f8c57610f8c611736565b60200101906001600160f81b03191690815f1a9053505b6020820160208601516020875101015f5b83811015610fcc578281015182820152602001610fb4565b5050508085602001818151610fe1919061174a565b90525093949350505050565b60408051808201909152606081525f6020820152607f821161102c576110148360016114a2565b825160208401805160f885901b9291610c5e826116ec565b60ff82116110575761103f8360026114a2565b8251602084018051603160fa1b9291610cb6826116ec565b61ffff82116110de5761106b8360036114a2565b825160208401805160c560f81b9291611083826116ec565b90528151811061109557611095611736565b60200101906001600160f81b03191690815f1a90535060208301516020845101018260081c8153826001820153506002836020018181516110d6919061174a565b905250610dcc565b63ffffffff8211611171576110f48360056114a2565b8251602084018051606360f91b929161110c826116ec565b90528151811061111e5761111e611736565b60200101906001600160f81b03191690815f1a90535060208301516020845101018260181c81538260101c60018201538260081c6002820153826003820153506004836020018181516110d6919061174a565b67ffffffffffffffff821161122c5761118b8360096114a2565b825160208401805160c760f81b92916111a3826116ec565b9052815181106111b5576111b5611736565b60200101906001600160f81b03191690815f1a90535060208301516020845101018260381c81538260301c60018201538260281c60028201538260201c60038201538260181c60048201538260101c60058201538260081c6006820153826007820153506008836020018181516110d6919061174a565b6fffffffffffffffffffffffffffffffff82116112ce5761124e8360116114a2565b8251602084018051601960fb1b9291611266826116ec565b90528151811061127857611278611736565b60200101906001600160f81b03191690815f1a90535060208301516020845101015f5b60108110156112b95783600882026078031c8183015360010161129b565b50506010836020018181516110d6919061174a565b6112d98360216114a2565b825160208401805160c960f81b92916112f1826116ec565b90528151811061130357611303611736565b60200101906001600160f81b03191690815f1a905350602083810180518551018201849052805161133590839061174a565b9052509192915050565b60605f826020015167ffffffffffffffff81111561135f5761135f61175d565b6040519080825280601f01601f191660200182016040528015611389576020820181803683370190505b50905060208351016020820160208501515f5b818110156113b457838101518382015260200161139c565b509295945050505050565b60408051808201909152606081525f6020820152600f82116113f1576113e68360016114a2565b610c4582609061174a565b60ff821161141c576114048360026114a2565b8251602084018051606b60f91b9291610cb6826116ec565b6114278360036114a2565b825160208401805160d760f81b9291610d19826116ec565b5f815f01515182602001511061147d5760405162461bcd60e51b815260206004820152600360248201526222a7a360e91b6044820152606401610185565b815160208301518151811061149457611494611736565b016020015160f81c92915050565b5f8183602001516114b3919061174a565b83515190915081116114c457505050565b8251515f6110008210156115085760026114df836003611771565b6114e99190611788565b9050828110156114f65750815b61150160808261174a565b905061153f565b5f61151383856117a7565b90505f611521600483611788565b90506080811015611530575060805b61153a818661174a565b925050505b5f8167ffffffffffffffff8111156115595761155961175d565b6040519080825280601f01601f191660200182016040528015611583576020820181803683370190505b50905060208651016020820160208801515f5b818110156115ae578381015183820152602001611596565b50505095525050505050565b5f81518084525f5b818110156115de576020818501810151868301820152016115c2565b505f602082860101526020601f19601f83011685010191505092915050565b858152846020820152831515604082015282606082015260a060808201525f61162960a08301846115ba565b979650505050505050565b608081525f61164660808301876115ba565b828103602084015261165881876115ba565b9050828103604084015261166c81866115ba565b915050821515606083015295945050505050565b602081525f61169260208301846115ba565b9392505050565b868152856020820152846040820152831515606082015260c060808201525f6116c560c08301856115ba565b90508260a0830152979650505050505050565b634e487b7160e01b5f52601160045260245ffd5b5f600182016116fd576116fd6116d8565b5060010190565b60ff8181168382160190811115610dcf57610dcf6116d8565b60ff8281168282160390811115610dcf57610dcf6116d8565b634e487b7160e01b5f52603260045260245ffd5b80820180821115610dcf57610dcf6116d8565b634e487b7160e01b5f52604160045260245ffd5b8082028115828204841417610dcf57610dcf6116d8565b5f826117a257634e487b7160e01b5f52601260045260245ffd5b500490565b81810381811115610dcf57610dcf6116d856fea26469706673582212208c6886bd205e2e347076c55892be8e4df38edcb8cf5009a9fa557678f0d6890964736f6c63430008140033","opcodes":"PUSH1 0x80 PUSH1 0x40 MSTORE CALLVALUE DUP1 ISZERO PUSH2 0xF JUMPI PUSH0 DUP1 REVERT JUMPDEST POP PUSH2 0x17F0 DUP1 PUSH2 0x1D PUSH0 CODECOPY PUSH0 RETURN INVALID PUSH1 0x80 PUSH1 0x40 MSTORE CALLVALUE DUP1 ISZERO PUSH2 0xF JUMPI PUSH0 DUP1 REVERT JUMPDEST POP PUSH1 0x4 CALLDATASIZE LT PUSH2 0x7A JUMPI PUSH0 CALLDATALOAD PUSH1 0xE0 SHR DUP1 PUSH4 0x9DE023A0 GT PUSH2 0x58 JUMPI DUP1 PUSH4 0x9DE023A0 EQ PUSH2 0xCD JUMPI DUP1 PUSH4 0xBD1A9B65 EQ PUSH2 0xD5 JUMPI DUP1 PUSH4 0xDAAD53D8 EQ PUSH2 0xEF JUMPI DUP1 PUSH4 0xFAF193E9 EQ PUSH2 0xF7 JUMPI PUSH0 DUP1 REVERT JUMPDEST DUP1 PUSH4 0x3578FCE7 EQ PUSH2 0x7E JUMPI DUP1 PUSH4 0x3B996F2E EQ PUSH2 0xA0 JUMPI DUP1 PUSH4 0x71ECA3F9 EQ PUSH2 0xB8 JUMPI JUMPDEST PUSH0 DUP1 REVERT JUMPDEST PUSH2 0x86 PUSH2 0xFF JUMP JUMPDEST PUSH1 0x40 MLOAD PUSH2 0x97 SWAP6 SWAP5 SWAP4 SWAP3 SWAP2 SWAP1 PUSH2 0x15FD JUMP JUMPDEST PUSH1 0x40 MLOAD DUP1 SWAP2 SUB SWAP1 RETURN JUMPDEST PUSH2 0xA8 PUSH2 0x1EB JUMP JUMPDEST PUSH1 0x40 MLOAD PUSH2 0x97 SWAP5 SWAP4 SWAP3 SWAP2 SWAP1 PUSH2 0x1634 JUMP JUMPDEST PUSH2 0xC0 PUSH2 0x327 JUMP JUMPDEST PUSH1 0x40 MLOAD PUSH2 0x97 SWAP2 SWAP1 PUSH2 0x1680 JUMP JUMPDEST PUSH2 0xC0 PUSH2 0x466 JUMP JUMPDEST PUSH2 0xDD PUSH2 0x4F6 JUMP JUMPDEST PUSH1 0x40 MLOAD PUSH2 0x97 SWAP7 SWAP6 SWAP5 SWAP4 SWAP3 SWAP2 SWAP1 PUSH2 0x1699 JUMP JUMPDEST PUSH2 0xC0 PUSH2 0x596 JUMP JUMPDEST PUSH2 0xC0 PUSH2 0x64B JUMP JUMPDEST PUSH0 DUP1 PUSH0 DUP1 PUSH1 0x60 PUSH0 PUSH2 0x10E PUSH2 0x64B JUMP JUMPDEST PUSH1 0x40 DUP1 MLOAD DUP1 DUP3 ADD DUP3 MSTORE PUSH1 0x60 DUP2 MSTORE PUSH0 PUSH1 0x20 SWAP2 DUP3 ADD DUP2 SWAP1 MSTORE DUP3 MLOAD DUP1 DUP5 ADD SWAP1 SWAP4 MSTORE DUP4 DUP4 MSTORE SWAP1 DUP3 ADD DUP2 SWAP1 MSTORE SWAP2 SWAP3 POP SWAP1 PUSH2 0x142 DUP3 PUSH2 0x663 JUMP JUMPDEST SWAP1 POP DUP1 PUSH1 0x2 EQ PUSH2 0x18E JUMPI PUSH1 0x40 MLOAD PUSH3 0x461BCD PUSH1 0xE5 SHL DUP2 MSTORE PUSH1 0x20 PUSH1 0x4 DUP3 ADD MSTORE PUSH1 0x12 PUSH1 0x24 DUP3 ADD MSTORE PUSH18 0x4578706563746564203220656E7472696573 PUSH1 0x70 SHL PUSH1 0x44 DUP3 ADD MSTORE PUSH1 0x64 ADD JUMPDEST PUSH1 0x40 MLOAD DUP1 SWAP2 SUB SWAP1 REVERT JUMPDEST PUSH2 0x197 DUP3 PUSH2 0x7C2 JUMP JUMPDEST POP PUSH2 0x1A1 DUP3 PUSH2 0x9E7 JUMP JUMPDEST SWAP8 POP PUSH2 0x1AC DUP3 PUSH2 0x7C2 JUMP JUMPDEST POP PUSH2 0x1B6 DUP3 PUSH2 0x9E7 JUMP JUMPDEST DUP3 MLOAD MLOAD PUSH1 0x20 DUP5 ADD MLOAD SWAP2 SWAP9 POP GT SWAP6 POP DUP6 ISZERO PUSH2 0x1E1 JUMPI PUSH2 0x1D3 DUP3 PUSH2 0x9E7 JUMP JUMPDEST SWAP5 POP PUSH2 0x1DE DUP3 PUSH2 0x7C2 JUMP JUMPDEST SWAP4 POP JUMPDEST POP POP POP SWAP1 SWAP2 SWAP3 SWAP4 SWAP5 JUMP JUMPDEST PUSH1 0x60 DUP1 PUSH1 0x60 PUSH0 DUP1 PUSH2 0x1FA PUSH2 0xBCE JUMP JUMPDEST SWAP1 POP PUSH2 0x207 DUP2 PUSH1 0x2 PUSH2 0xC13 JUMP JUMPDEST POP PUSH2 0x22B DUP2 PUSH1 0x40 MLOAD DUP1 PUSH1 0x40 ADD PUSH1 0x40 MSTORE DUP1 PUSH1 0x1 DUP2 MSTORE PUSH1 0x20 ADD PUSH1 0x61 PUSH1 0xF8 SHL DUP2 MSTORE POP PUSH2 0xDD5 JUMP JUMPDEST POP PUSH2 0x237 DUP2 PUSH1 0x1 PUSH2 0xFED JUMP JUMPDEST POP PUSH2 0x25B DUP2 PUSH1 0x40 MLOAD DUP1 PUSH1 0x40 ADD PUSH1 0x40 MSTORE DUP1 PUSH1 0x1 DUP2 MSTORE PUSH1 0x20 ADD PUSH1 0x31 PUSH1 0xF9 SHL DUP2 MSTORE POP PUSH2 0xDD5 JUMP JUMPDEST POP PUSH2 0x267 DUP2 PUSH1 0x2 PUSH2 0xFED JUMP JUMPDEST POP PUSH2 0x271 DUP2 PUSH2 0x133F JUMP JUMPDEST SWAP5 POP PUSH0 PUSH2 0x27C PUSH2 0xBCE JUMP JUMPDEST SWAP1 POP PUSH2 0x289 DUP2 PUSH1 0x2 PUSH2 0xC13 JUMP JUMPDEST POP PUSH2 0x2AD DUP2 PUSH1 0x40 MLOAD DUP1 PUSH1 0x40 ADD PUSH1 0x40 MSTORE DUP1 PUSH1 0x1 DUP2 MSTORE PUSH1 0x20 ADD PUSH1 0x61 PUSH1 0xF8 SHL DUP2 MSTORE POP PUSH2 0xDD5 JUMP JUMPDEST POP PUSH2 0x2B9 DUP2 PUSH1 0x1 PUSH2 0xFED JUMP JUMPDEST POP PUSH2 0x2DD DUP2 PUSH1 0x40 MLOAD DUP1 PUSH1 0x40 ADD PUSH1 0x40 MSTORE DUP1 PUSH1 0x1 DUP2 MSTORE PUSH1 0x20 ADD PUSH1 0x31 PUSH1 0xF9 SHL DUP2 MSTORE POP PUSH2 0xDD5 JUMP JUMPDEST POP PUSH2 0x2E9 DUP2 PUSH1 0x2 PUSH2 0xFED JUMP JUMPDEST POP PUSH2 0x2F5 DUP2 PUSH1 0x2A PUSH2 0xFED JUMP JUMPDEST POP PUSH2 0x2FF DUP2 PUSH2 0x133F JUMP JUMPDEST SWAP5 POP PUSH2 0x309 PUSH2 0x64B JUMP JUMPDEST SWAP4 POP DUP6 MLOAD DUP6 MLOAD GT DUP1 ISZERO PUSH2 0x31D JUMPI POP DUP5 MLOAD DUP5 MLOAD GT JUMPDEST SWAP3 POP POP POP SWAP1 SWAP2 SWAP3 SWAP4 JUMP JUMPDEST PUSH1 0x60 PUSH0 PUSH2 0x332 PUSH2 0xBCE JUMP JUMPDEST SWAP1 POP PUSH2 0x33F DUP2 PUSH1 0x3 PUSH2 0xC13 JUMP JUMPDEST POP PUSH2 0x366 DUP2 PUSH1 0x40 MLOAD DUP1 PUSH1 0x40 ADD PUSH1 0x40 MSTORE DUP1 PUSH1 0x4 DUP2 MSTORE PUSH1 0x20 ADD PUSH4 0x64617461 PUSH1 0xE0 SHL DUP2 MSTORE POP PUSH2 0xDD5 JUMP JUMPDEST POP PUSH2 0x372 DUP2 PUSH1 0x2 PUSH2 0xC13 JUMP JUMPDEST POP PUSH2 0x396 DUP2 PUSH1 0x40 MLOAD DUP1 PUSH1 0x40 ADD PUSH1 0x40 MSTORE DUP1 PUSH1 0x1 DUP2 MSTORE PUSH1 0x20 ADD PUSH1 0x61 PUSH1 0xF8 SHL DUP2 MSTORE POP PUSH2 0xDD5 JUMP JUMPDEST POP PUSH2 0x3A2 DUP2 PUSH1 0x1 PUSH2 0xFED JUMP JUMPDEST POP PUSH2 0x3C6 DUP2 PUSH1 0x40 MLOAD DUP1 PUSH1 0x40 ADD PUSH1 0x40 MSTORE DUP1 PUSH1 0x1 DUP2 MSTORE PUSH1 0x20 ADD PUSH1 0x31 PUSH1 0xF9 SHL DUP2 MSTORE POP PUSH2 0xDD5 JUMP JUMPDEST POP PUSH2 0x3D2 DUP2 PUSH1 0x2 PUSH2 0xFED JUMP JUMPDEST POP PUSH2 0x3FB DUP2 PUSH1 0x40 MLOAD DUP1 PUSH1 0x40 ADD PUSH1 0x40 MSTORE DUP1 PUSH1 0x6 DUP2 MSTORE PUSH1 0x20 ADD PUSH6 0x373AB6B132B9 PUSH1 0xD1 SHL DUP2 MSTORE POP PUSH2 0xDD5 JUMP JUMPDEST POP PUSH2 0x407 DUP2 PUSH1 0x2A PUSH2 0xFED JUMP JUMPDEST POP PUSH2 0x42E DUP2 PUSH1 0x40 MLOAD DUP1 PUSH1 0x40 ADD PUSH1 0x40 MSTORE DUP1 PUSH1 0x4 DUP2 MSTORE PUSH1 0x20 ADD PUSH4 0x1D195E1D PUSH1 0xE2 SHL DUP2 MSTORE POP PUSH2 0xDD5 JUMP JUMPDEST POP PUSH2 0x456 DUP2 PUSH1 0x40 MLOAD DUP1 PUSH1 0x40 ADD PUSH1 0x40 MSTORE DUP1 PUSH1 0x5 DUP2 MSTORE PUSH1 0x20 ADD PUSH5 0x68656C6C6F PUSH1 0xD8 SHL DUP2 MSTORE POP PUSH2 0xDD5 JUMP JUMPDEST POP PUSH2 0x460 DUP2 PUSH2 0x133F JUMP JUMPDEST SWAP2 POP POP SWAP1 JUMP JUMPDEST PUSH1 0x60 PUSH0 PUSH2 0x471 PUSH2 0xBCE JUMP JUMPDEST SWAP1 POP PUSH2 0x47E DUP2 PUSH1 0x3 PUSH2 0x13BF JUMP JUMPDEST POP PUSH2 0x48A DUP2 PUSH1 0x2 PUSH2 0xC13 JUMP JUMPDEST POP PUSH2 0x4AE DUP2 PUSH1 0x40 MLOAD DUP1 PUSH1 0x40 ADD PUSH1 0x40 MSTORE DUP1 PUSH1 0x1 DUP2 MSTORE PUSH1 0x20 ADD PUSH1 0x61 PUSH1 0xF8 SHL DUP2 MSTORE POP PUSH2 0xDD5 JUMP JUMPDEST POP PUSH2 0x4BA DUP2 PUSH1 0x1 PUSH2 0xFED JUMP JUMPDEST POP PUSH2 0x4DE DUP2 PUSH1 0x40 MLOAD DUP1 PUSH1 0x40 ADD PUSH1 0x40 MSTORE DUP1 PUSH1 0x1 DUP2 MSTORE PUSH1 0x20 ADD PUSH1 0x31 PUSH1 0xF9 SHL DUP2 MSTORE POP PUSH2 0xDD5 JUMP JUMPDEST POP PUSH2 0x4EA DUP2 PUSH1 0x2 PUSH2 0xFED JUMP JUMPDEST POP PUSH2 0x42E DUP2 PUSH1 0x2A PUSH2 0xFED JUMP JUMPDEST PUSH0 DUP1 PUSH0 DUP1 PUSH1 0x60 PUSH0 DUP1 PUSH2 0x506 PUSH2 0x596 JUMP JUMPDEST PUSH1 0x40 DUP1 MLOAD DUP1 DUP3 ADD DUP3 MSTORE PUSH1 0x60 DUP2 MSTORE PUSH0 PUSH1 0x20 SWAP2 DUP3 ADD DUP2 SWAP1 MSTORE DUP3 MLOAD DUP1 DUP5 ADD SWAP1 SWAP4 MSTORE DUP4 DUP4 MSTORE SWAP1 DUP3 ADD MSTORE SWAP1 SWAP2 POP PUSH2 0x537 DUP2 PUSH2 0x663 JUMP JUMPDEST SWAP8 POP PUSH2 0x542 DUP2 PUSH2 0x7C2 JUMP JUMPDEST POP PUSH2 0x54C DUP2 PUSH2 0x9E7 JUMP JUMPDEST SWAP7 POP PUSH2 0x557 DUP2 PUSH2 0x7C2 JUMP JUMPDEST POP PUSH2 0x561 DUP2 PUSH2 0x9E7 JUMP JUMPDEST DUP2 MLOAD MLOAD PUSH1 0x20 DUP4 ADD MLOAD SWAP2 SWAP8 POP GT SWAP5 POP DUP5 ISZERO PUSH2 0x58C JUMPI PUSH2 0x57E DUP2 PUSH2 0x7C2 JUMP JUMPDEST SWAP4 POP PUSH2 0x589 DUP2 PUSH2 0x9E7 JUMP JUMPDEST SWAP3 POP JUMPDEST POP POP SWAP1 SWAP2 SWAP3 SWAP4 SWAP5 SWAP6 JUMP JUMPDEST PUSH1 0x60 PUSH0 PUSH2 0x5A1 PUSH2 0xBCE JUMP JUMPDEST SWAP1 POP PUSH2 0x5AE DUP2 PUSH1 0x2 PUSH2 0xC13 JUMP JUMPDEST POP PUSH2 0x5D6 DUP2 PUSH1 0x40 MLOAD DUP1 PUSH1 0x40 ADD PUSH1 0x40 MSTORE DUP1 PUSH1 0x5 DUP2 MSTORE PUSH1 0x20 ADD PUSH5 0x199A5C9CDD PUSH1 0xDA SHL DUP2 MSTORE POP PUSH2 0xDD5 JUMP JUMPDEST POP PUSH2 0x5E2 DUP2 PUSH1 0x1 PUSH2 0xFED JUMP JUMPDEST POP PUSH2 0x60B DUP2 PUSH1 0x40 MLOAD DUP1 PUSH1 0x40 ADD PUSH1 0x40 MSTORE DUP1 PUSH1 0x6 DUP2 MSTORE PUSH1 0x20 ADD PUSH6 0x1CD958DBDB99 PUSH1 0xD2 SHL DUP2 MSTORE POP PUSH2 0xDD5 JUMP JUMPDEST POP PUSH2 0x617 DUP2 PUSH1 0x2 PUSH2 0xFED JUMP JUMPDEST POP PUSH2 0x63F DUP2 PUSH1 0x40 MLOAD DUP1 PUSH1 0x40 ADD PUSH1 0x40 MSTORE DUP1 PUSH1 0x5 DUP2 MSTORE PUSH1 0x20 ADD PUSH5 0x1D1A1A5C99 PUSH1 0xDA SHL DUP2 MSTORE POP PUSH2 0xDD5 JUMP JUMPDEST POP PUSH2 0x456 DUP2 PUSH1 0x3 PUSH2 0xFED JUMP JUMPDEST PUSH1 0x60 PUSH0 PUSH2 0x656 PUSH2 0xBCE JUMP JUMPDEST SWAP1 POP PUSH2 0x48A DUP2 PUSH1 0x2 PUSH2 0xC13 JUMP JUMPDEST PUSH0 DUP1 PUSH2 0x66E DUP4 PUSH2 0x143F JUMP JUMPDEST PUSH1 0x20 DUP5 ADD DUP1 MLOAD SWAP2 SWAP3 POP PUSH2 0x680 DUP3 PUSH2 0x16EC JUMP JUMPDEST SWAP1 MSTORE POP PUSH1 0x80 PUSH1 0xFF DUP3 AND LT DUP1 ISZERO SWAP1 PUSH2 0x6A7 JUMPI POP PUSH2 0x69E PUSH1 0x80 PUSH1 0x10 PUSH2 0x1704 JUMP JUMPDEST PUSH1 0xFF AND DUP2 PUSH1 0xFF AND LT JUMPDEST ISZERO PUSH2 0x6C1 JUMPI PUSH2 0x6B7 PUSH1 0x80 DUP3 PUSH2 0x171D JUMP JUMPDEST PUSH1 0xFF AND SWAP4 SWAP3 POP POP POP JUMP JUMPDEST PUSH1 0xD7 NOT PUSH1 0xFF DUP3 AND ADD PUSH2 0x700 JUMPI DUP3 MLOAD PUSH1 0x20 DUP5 ADD DUP1 MLOAD SWAP1 PUSH2 0x6DF DUP3 PUSH2 0x16EC JUMP JUMPDEST SWAP1 MSTORE DUP2 MLOAD DUP2 LT PUSH2 0x6F1 JUMPI PUSH2 0x6F1 PUSH2 0x1736 JUMP JUMPDEST ADD PUSH1 0x20 ADD MLOAD PUSH1 0xF8 SHR SWAP4 SWAP3 POP POP POP JUMP JUMPDEST PUSH1 0xD8 NOT PUSH1 0xFF DUP3 AND ADD PUSH2 0x790 JUMPI DUP3 MLOAD PUSH1 0x20 DUP5 ADD MLOAD PUSH0 SWAP2 SWAP1 PUSH2 0x721 SWAP1 PUSH1 0x1 PUSH2 0x174A JUMP JUMPDEST DUP2 MLOAD DUP2 LT PUSH2 0x731 JUMPI PUSH2 0x731 PUSH2 0x1736 JUMP JUMPDEST PUSH1 0x20 ADD ADD MLOAD PUSH1 0xF8 SHR PUSH1 0xF8 SHL PUSH1 0xF8 SHR PUSH1 0xFF AND PUSH1 0x8 DUP6 PUSH0 ADD MLOAD DUP7 PUSH1 0x20 ADD MLOAD DUP2 MLOAD DUP2 LT PUSH2 0x75D JUMPI PUSH2 0x75D PUSH2 0x1736 JUMP JUMPDEST PUSH1 0x20 ADD ADD MLOAD PUSH1 0xF8 SHR PUSH1 0xF8 SHL PUSH1 0xF8 SHR PUSH1 0xFF AND SWAP1 SHL OR SWAP1 POP PUSH1 0x2 DUP5 PUSH1 0x20 ADD DUP2 DUP2 MLOAD PUSH2 0x786 SWAP2 SWAP1 PUSH2 0x174A JUMP JUMPDEST SWAP1 MSTORE POP SWAP4 SWAP3 POP POP POP JUMP JUMPDEST PUSH1 0x40 MLOAD PUSH3 0x461BCD PUSH1 0xE5 SHL DUP2 MSTORE PUSH1 0x20 PUSH1 0x4 DUP3 ADD MSTORE PUSH1 0x7 PUSH1 0x24 DUP3 ADD MSTORE PUSH7 0x4E6F74206D617 PUSH1 0xCC SHL PUSH1 0x44 DUP3 ADD MSTORE PUSH1 0x64 ADD PUSH2 0x185 JUMP JUMPDEST PUSH1 0x60 PUSH0 PUSH2 0x7CE DUP4 PUSH2 0x143F JUMP JUMPDEST PUSH1 0x20 DUP5 ADD DUP1 MLOAD SWAP2 SWAP3 POP PUSH2 0x7E0 DUP3 PUSH2 0x16EC JUMP JUMPDEST SWAP1 MSTORE POP PUSH0 PUSH1 0xA0 PUSH1 0xFF DUP4 AND LT DUP1 ISZERO SWAP1 PUSH2 0x808 JUMPI POP PUSH2 0x7FF PUSH1 0xA0 PUSH1 0x20 PUSH2 0x1704 JUMP JUMPDEST PUSH1 0xFF AND DUP3 PUSH1 0xFF AND LT JUMPDEST ISZERO PUSH2 0x822 JUMPI PUSH2 0x818 PUSH1 0xA0 DUP4 PUSH2 0x171D JUMP JUMPDEST PUSH1 0xFF AND SWAP1 POP PUSH2 0x921 JUMP JUMPDEST PUSH1 0xD1 NOT PUSH1 0xFF DUP4 AND ADD PUSH2 0x861 JUMPI DUP4 MLOAD PUSH1 0x20 DUP6 ADD DUP1 MLOAD SWAP1 PUSH2 0x840 DUP3 PUSH2 0x16EC JUMP JUMPDEST SWAP1 MSTORE DUP2 MLOAD DUP2 LT PUSH2 0x852 JUMPI PUSH2 0x852 PUSH2 0x1736 JUMP JUMPDEST ADD PUSH1 0x20 ADD MLOAD PUSH1 0xF8 SHR SWAP1 POP PUSH2 0x921 JUMP JUMPDEST PUSH1 0xD2 NOT PUSH1 0xFF DUP4 AND ADD PUSH2 0x8EC JUMPI DUP4 MLOAD PUSH1 0x20 DUP6 ADD MLOAD PUSH2 0x87F SWAP1 PUSH1 0x1 PUSH2 0x174A JUMP JUMPDEST DUP2 MLOAD DUP2 LT PUSH2 0x88F JUMPI PUSH2 0x88F PUSH2 0x1736 JUMP JUMPDEST PUSH1 0x20 ADD ADD MLOAD PUSH1 0xF8 SHR PUSH1 0xF8 SHL PUSH1 0xF8 SHR PUSH1 0xFF AND PUSH1 0x8 DUP6 PUSH0 ADD MLOAD DUP7 PUSH1 0x20 ADD MLOAD DUP2 MLOAD DUP2 LT PUSH2 0x8BB JUMPI PUSH2 0x8BB PUSH2 0x1736 JUMP JUMPDEST PUSH1 0x20 ADD ADD MLOAD PUSH1 0xF8 SHR PUSH1 0xF8 SHL PUSH1 0xF8 SHR PUSH1 0xFF AND SWAP1 SHL OR SWAP1 POP PUSH1 0x2 DUP5 PUSH1 0x20 ADD DUP2 DUP2 MLOAD PUSH2 0x8E4 SWAP2 SWAP1 PUSH2 0x174A JUMP JUMPDEST SWAP1 MSTORE POP PUSH2 0x921 JUMP JUMPDEST PUSH1 0x40 MLOAD PUSH3 0x461BCD PUSH1 0xE5 SHL DUP2 MSTORE PUSH1 0x20 PUSH1 0x4 DUP3 ADD MSTORE PUSH1 0xA PUSH1 0x24 DUP3 ADD MSTORE PUSH10 0x4E6F7420737472696E67 PUSH1 0xB0 SHL PUSH1 0x44 DUP3 ADD MSTORE PUSH1 0x64 ADD PUSH2 0x185 JUMP JUMPDEST PUSH0 DUP2 PUSH8 0xFFFFFFFFFFFFFFFF DUP2 GT ISZERO PUSH2 0x93B JUMPI PUSH2 0x93B PUSH2 0x175D JUMP JUMPDEST PUSH1 0x40 MLOAD SWAP1 DUP1 DUP3 MSTORE DUP1 PUSH1 0x1F ADD PUSH1 0x1F NOT AND PUSH1 0x20 ADD DUP3 ADD PUSH1 0x40 MSTORE DUP1 ISZERO PUSH2 0x965 JUMPI PUSH1 0x20 DUP3 ADD DUP2 DUP1 CALLDATASIZE DUP4 CALLDATACOPY ADD SWAP1 POP JUMPDEST POP SWAP1 POP PUSH1 0x20 DUP6 ADD MLOAD PUSH1 0x20 DUP7 MLOAD ADD ADD PUSH1 0x20 DUP3 ADD PUSH1 0x20 DUP5 DIV PUSH0 JUMPDEST DUP2 DUP2 LT ISZERO PUSH2 0x999 JUMPI PUSH1 0x20 DUP2 MUL DUP5 DUP2 ADD MLOAD SWAP1 DUP5 ADD MSTORE PUSH1 0x1 ADD PUSH2 0x97D JUMP JUMPDEST POP PUSH1 0x1F DUP6 AND DUP1 ISZERO PUSH2 0x9C6 JUMPI PUSH1 0x20 DUP3 MUL DUP5 DUP2 ADD MLOAD PUSH1 0x1 PUSH1 0x8 DUP5 MUL SWAP1 DUP2 SHL PUSH0 NOT ADD PUSH2 0x100 SWAP2 SWAP1 SWAP2 SUB SHL AND SWAP1 DUP5 ADD MSTORE JUMPDEST POP POP POP POP DUP2 DUP6 PUSH1 0x20 ADD DUP2 DUP2 MLOAD PUSH2 0x9DC SWAP2 SWAP1 PUSH2 0x174A JUMP JUMPDEST SWAP1 MSTORE POP SWAP5 SWAP4 POP POP POP POP JUMP JUMPDEST PUSH0 DUP1 PUSH2 0x9F2 DUP4 PUSH2 0x143F JUMP JUMPDEST PUSH1 0x20 DUP5 ADD DUP1 MLOAD SWAP2 SWAP3 POP PUSH2 0xA04 DUP3 PUSH2 0x16EC JUMP JUMPDEST SWAP1 MSTORE POP PUSH1 0x7F PUSH1 0xFF DUP3 AND GT PUSH2 0xA1B JUMPI PUSH1 0xFF AND SWAP3 SWAP2 POP POP JUMP JUMPDEST PUSH1 0xC3 NOT PUSH1 0xFF DUP3 AND ADD PUSH2 0xA39 JUMPI DUP3 MLOAD PUSH1 0x20 DUP5 ADD DUP1 MLOAD SWAP1 PUSH2 0x6DF DUP3 PUSH2 0x16EC JUMP JUMPDEST PUSH1 0xC4 NOT PUSH1 0xFF DUP3 AND ADD PUSH2 0xA76 JUMPI PUSH0 PUSH1 0x20 DUP5 ADD MLOAD PUSH1 0x20 DUP6 MLOAD ADD ADD PUSH1 0x1 DUP2 ADD MLOAD PUSH0 BYTE DUP2 MLOAD PUSH0 BYTE PUSH1 0x8 SHL OR SWAP2 POP POP PUSH1 0x2 DUP5 PUSH1 0x20 ADD DUP2 DUP2 MLOAD PUSH2 0x786 SWAP2 SWAP1 PUSH2 0x174A JUMP JUMPDEST PUSH1 0xC5 NOT PUSH1 0xFF DUP3 AND ADD PUSH2 0xAC9 JUMPI PUSH0 PUSH1 0x20 DUP5 ADD MLOAD PUSH1 0x20 DUP6 MLOAD ADD ADD PUSH1 0x3 DUP2 ADD MLOAD PUSH0 BYTE PUSH1 0x2 DUP3 ADD MLOAD PUSH0 BYTE PUSH1 0x8 SHL PUSH1 0x1 DUP4 ADD MLOAD PUSH0 BYTE PUSH1 0x10 SHL DUP4 MLOAD PUSH0 BYTE PUSH1 0x18 SHL OR OR OR SWAP2 POP POP PUSH1 0x4 DUP5 PUSH1 0x20 ADD DUP2 DUP2 MLOAD PUSH2 0x786 SWAP2 SWAP1 PUSH2 0x174A JUMP JUMPDEST PUSH1 0xC6 NOT PUSH1 0xFF DUP3 AND ADD PUSH2 0xB1A JUMPI PUSH1 0x20 DUP4 DUP2 ADD MLOAD DUP5 MLOAD PUSH0 SWAP3 SWAP2 ADD ADD DUP2 JUMPDEST PUSH1 0x8 DUP2 LT ISZERO PUSH2 0xB05 JUMPI DUP1 DUP3 ADD MLOAD PUSH0 BYTE DUP4 PUSH1 0x8 SHL OR SWAP3 POP PUSH1 0x1 DUP2 ADD SWAP1 POP PUSH2 0xAE4 JUMP JUMPDEST POP POP PUSH1 0x8 DUP5 PUSH1 0x20 ADD DUP2 DUP2 MLOAD PUSH2 0x786 SWAP2 SWAP1 PUSH2 0x174A JUMP JUMPDEST PUSH1 0xC7 NOT PUSH1 0xFF DUP3 AND ADD PUSH2 0xB6B JUMPI PUSH1 0x20 DUP4 DUP2 ADD MLOAD DUP5 MLOAD PUSH0 SWAP3 SWAP2 ADD ADD DUP2 JUMPDEST PUSH1 0x10 DUP2 LT ISZERO PUSH2 0xB56 JUMPI DUP1 DUP3 ADD MLOAD PUSH0 BYTE DUP4 PUSH1 0x8 SHL OR SWAP3 POP PUSH1 0x1 DUP2 ADD SWAP1 POP PUSH2 0xB35 JUMP JUMPDEST POP POP PUSH1 0x10 DUP5 PUSH1 0x20 ADD DUP2 DUP2 MLOAD PUSH2 0x786 SWAP2 SWAP1 PUSH2 0x174A JUMP JUMPDEST PUSH1 0xC8 NOT PUSH1 0xFF DUP3 AND ADD PUSH2 0xB93 JUMPI PUSH1 0x20 DUP4 DUP2 ADD DUP1 MLOAD DUP6 MLOAD DUP2 ADD DUP4 ADD MLOAD SWAP3 SWAP2 SWAP1 PUSH2 0x786 SWAP1 DUP4 SWAP1 PUSH2 0x174A JUMP JUMPDEST PUSH1 0x40 MLOAD PUSH3 0x461BCD PUSH1 0xE5 SHL DUP2 MSTORE PUSH1 0x20 PUSH1 0x4 DUP3 ADD MSTORE PUSH1 0x10 PUSH1 0x24 DUP3 ADD MSTORE PUSH16 0x496E76616C69642075696E7420746167 PUSH1 0x80 SHL PUSH1 0x44 DUP3 ADD MSTORE PUSH1 0x64 ADD PUSH2 0x185 JUMP JUMPDEST PUSH1 0x40 DUP1 MLOAD DUP1 DUP3 ADD DUP3 MSTORE PUSH1 0x60 DUP1 DUP3 MSTORE PUSH0 PUSH1 0x20 DUP4 ADD MSTORE DUP3 MLOAD PUSH2 0x100 DUP2 DUP6 ADD DUP2 DUP2 MSTORE PUSH2 0x160 DUP4 ADD SWAP1 SWAP6 MSTORE SWAP3 SWAP4 SWAP1 SWAP3 DUP4 SWAP3 DUP4 ADD DUP2 DUP1 CALLDATASIZE DUP4 CALLDATACOPY POP POP POP DUP2 MSTORE PUSH0 PUSH1 0x20 SWAP1 SWAP2 ADD MSTORE SWAP2 SWAP1 POP JUMP JUMPDEST PUSH1 0x40 DUP1 MLOAD DUP1 DUP3 ADD SWAP1 SWAP2 MSTORE PUSH1 0x60 DUP2 MSTORE PUSH0 PUSH1 0x20 DUP3 ADD MSTORE PUSH1 0xF DUP3 GT PUSH2 0xC8B JUMPI PUSH2 0xC3A DUP4 PUSH1 0x1 PUSH2 0x14A2 JUMP JUMPDEST PUSH2 0xC45 DUP3 PUSH1 0x80 PUSH2 0x174A JUMP JUMPDEST PUSH1 0xF8 SHL DUP4 PUSH0 ADD MLOAD DUP5 PUSH1 0x20 ADD DUP1 MLOAD DUP1 SWAP2 SWAP1 PUSH2 0xC5E SWAP1 PUSH2 0x16EC JUMP JUMPDEST SWAP1 MSTORE DUP2 MLOAD DUP2 LT PUSH2 0xC70 JUMPI PUSH2 0xC70 PUSH2 0x1736 JUMP JUMPDEST PUSH1 0x20 ADD ADD SWAP1 PUSH1 0x1 PUSH1 0x1 PUSH1 0xF8 SHL SUB NOT AND SWAP1 DUP2 PUSH0 BYTE SWAP1 MSTORE8 POP PUSH2 0xDCC JUMP JUMPDEST PUSH1 0xFF DUP3 GT PUSH2 0xCF6 JUMPI PUSH2 0xC9E DUP4 PUSH1 0x2 PUSH2 0x14A2 JUMP JUMPDEST DUP3 MLOAD PUSH1 0x20 DUP5 ADD DUP1 MLOAD PUSH1 0x1B PUSH1 0xFB SHL SWAP3 SWAP2 PUSH2 0xCB6 DUP3 PUSH2 0x16EC JUMP JUMPDEST SWAP1 MSTORE DUP2 MLOAD DUP2 LT PUSH2 0xCC8 JUMPI PUSH2 0xCC8 PUSH2 0x1736 JUMP JUMPDEST PUSH1 0x20 ADD ADD SWAP1 PUSH1 0x1 PUSH1 0x1 PUSH1 0xF8 SHL SUB NOT AND SWAP1 DUP2 PUSH0 BYTE SWAP1 MSTORE8 POP DUP3 MLOAD PUSH1 0x20 DUP5 ADD DUP1 MLOAD PUSH1 0xF8 DUP6 SWAP1 SHL SWAP3 SWAP2 PUSH2 0xC5E DUP3 PUSH2 0x16EC JUMP JUMPDEST PUSH2 0xD01 DUP4 PUSH1 0x3 PUSH2 0x14A2 JUMP JUMPDEST DUP3 MLOAD PUSH1 0x20 DUP5 ADD DUP1 MLOAD PUSH1 0xD9 PUSH1 0xF8 SHL SWAP3 SWAP2 PUSH2 0xD19 DUP3 PUSH2 0x16EC JUMP JUMPDEST SWAP1 MSTORE DUP2 MLOAD DUP2 LT PUSH2 0xD2B JUMPI PUSH2 0xD2B PUSH2 0x1736 JUMP JUMPDEST PUSH1 0x20 ADD ADD SWAP1 PUSH1 0x1 PUSH1 0x1 PUSH1 0xF8 SHL SUB NOT AND SWAP1 DUP2 PUSH0 BYTE SWAP1 MSTORE8 POP DUP3 MLOAD PUSH1 0x20 DUP5 ADD DUP1 MLOAD PUSH1 0x1 PUSH1 0x1 PUSH1 0xF8 SHL SUB NOT PUSH1 0xF0 DUP7 SWAP1 SHL AND SWAP3 SWAP2 PUSH2 0xD63 DUP3 PUSH2 0x16EC JUMP JUMPDEST SWAP1 MSTORE DUP2 MLOAD DUP2 LT PUSH2 0xD75 JUMPI PUSH2 0xD75 PUSH2 0x1736 JUMP JUMPDEST PUSH1 0x20 ADD ADD SWAP1 PUSH1 0x1 PUSH1 0x1 PUSH1 0xF8 SHL SUB NOT AND SWAP1 DUP2 PUSH0 BYTE SWAP1 MSTORE8 POP DUP3 MLOAD PUSH1 0x20 DUP5 ADD DUP1 MLOAD PUSH1 0xF8 DUP6 SWAP1 SHL SWAP3 SWAP2 PUSH2 0xDA3 DUP3 PUSH2 0x16EC JUMP JUMPDEST SWAP1 MSTORE DUP2 MLOAD DUP2 LT PUSH2 0xDB5 JUMPI PUSH2 0xDB5 PUSH2 0x1736 JUMP JUMPDEST PUSH1 0x20 ADD ADD SWAP1 PUSH1 0x1 PUSH1 0x1 PUSH1 0xF8 SHL SUB NOT AND SWAP1 DUP2 PUSH0 BYTE SWAP1 MSTORE8 POP JUMPDEST POP DUP2 JUMPDEST SWAP3 SWAP2 POP POP JUMP JUMPDEST PUSH1 0x40 DUP1 MLOAD DUP1 DUP3 ADD SWAP1 SWAP2 MSTORE PUSH1 0x60 DUP2 MSTORE PUSH0 PUSH1 0x20 DUP3 ADD MSTORE DUP2 MLOAD DUP3 SWAP1 PUSH1 0x1F DUP2 GT PUSH2 0xE5A JUMPI PUSH2 0xE09 DUP6 PUSH2 0xE04 DUP4 PUSH1 0x1 PUSH2 0x174A JUMP JUMPDEST PUSH2 0x14A2 JUMP JUMPDEST PUSH2 0xE14 DUP2 PUSH1 0xA0 PUSH2 0x174A JUMP JUMPDEST PUSH1 0xF8 SHL DUP6 PUSH0 ADD MLOAD DUP7 PUSH1 0x20 ADD DUP1 MLOAD DUP1 SWAP2 SWAP1 PUSH2 0xE2D SWAP1 PUSH2 0x16EC JUMP JUMPDEST SWAP1 MSTORE DUP2 MLOAD DUP2 LT PUSH2 0xE3F JUMPI PUSH2 0xE3F PUSH2 0x1736 JUMP JUMPDEST PUSH1 0x20 ADD ADD SWAP1 PUSH1 0x1 PUSH1 0x1 PUSH1 0xF8 SHL SUB NOT AND SWAP1 DUP2 PUSH0 BYTE SWAP1 MSTORE8 POP PUSH2 0xFA3 JUMP JUMPDEST PUSH1 0xFF DUP2 GT PUSH2 0xEC9 JUMPI PUSH2 0xE71 DUP6 PUSH2 0xE04 DUP4 PUSH1 0x2 PUSH2 0x174A JUMP JUMPDEST DUP5 MLOAD PUSH1 0x20 DUP7 ADD DUP1 MLOAD PUSH1 0x69 PUSH1 0xF9 SHL SWAP3 SWAP2 PUSH2 0xE89 DUP3 PUSH2 0x16EC JUMP JUMPDEST SWAP1 MSTORE DUP2 MLOAD DUP2 LT PUSH2 0xE9B JUMPI PUSH2 0xE9B PUSH2 0x1736 JUMP JUMPDEST PUSH1 0x20 ADD ADD SWAP1 PUSH1 0x1 PUSH1 0x1 PUSH1 0xF8 SHL SUB NOT AND SWAP1 DUP2 PUSH0 BYTE SWAP1 MSTORE8 POP DUP5 MLOAD PUSH1 0x20 DUP7 ADD DUP1 MLOAD PUSH1 0xF8 DUP5 SWAP1 SHL SWAP3 SWAP2 PUSH2 0xE2D DUP3 PUSH2 0x16EC JUMP JUMPDEST PUSH2 0xED8 DUP6 PUSH2 0xE04 DUP4 PUSH1 0x3 PUSH2 0x174A JUMP JUMPDEST DUP5 MLOAD PUSH1 0x20 DUP7 ADD DUP1 MLOAD PUSH1 0xD3 PUSH1 0xF8 SHL SWAP3 SWAP2 PUSH2 0xEF0 DUP3 PUSH2 0x16EC JUMP JUMPDEST SWAP1 MSTORE DUP2 MLOAD DUP2 LT PUSH2 0xF02 JUMPI PUSH2 0xF02 PUSH2 0x1736 JUMP JUMPDEST PUSH1 0x20 ADD ADD SWAP1 PUSH1 0x1 PUSH1 0x1 PUSH1 0xF8 SHL SUB NOT AND SWAP1 DUP2 PUSH0 BYTE SWAP1 MSTORE8 POP DUP5 MLOAD PUSH1 0x20 DUP7 ADD DUP1 MLOAD PUSH1 0x1 PUSH1 0x1 PUSH1 0xF8 SHL SUB NOT PUSH1 0xF0 DUP6 SWAP1 SHL AND SWAP3 SWAP2 PUSH2 0xF3A DUP3 PUSH2 0x16EC JUMP JUMPDEST SWAP1 MSTORE DUP2 MLOAD DUP2 LT PUSH2 0xF4C JUMPI PUSH2 0xF4C PUSH2 0x1736 JUMP JUMPDEST PUSH1 0x20 ADD ADD SWAP1 PUSH1 0x1 PUSH1 0x1 PUSH1 0xF8 SHL SUB NOT AND SWAP1 DUP2 PUSH0 BYTE SWAP1 MSTORE8 POP DUP5 MLOAD PUSH1 0x20 DUP7 ADD DUP1 MLOAD PUSH1 0xF8 DUP5 SWAP1 SHL SWAP3 SWAP2 PUSH2 0xF7A DUP3 PUSH2 0x16EC JUMP JUMPDEST SWAP1 MSTORE DUP2 MLOAD DUP2 LT PUSH2 0xF8C JUMPI PUSH2 0xF8C PUSH2 0x1736 JUMP JUMPDEST PUSH1 0x20 ADD ADD SWAP1 PUSH1 0x1 PUSH1 0x1 PUSH1 0xF8 SHL SUB NOT AND SWAP1 DUP2 PUSH0 BYTE SWAP1 MSTORE8 POP JUMPDEST PUSH1 0x20 DUP3 ADD PUSH1 0x20 DUP7 ADD MLOAD PUSH1 0x20 DUP8 MLOAD ADD ADD PUSH0 JUMPDEST DUP4 DUP2 LT ISZERO PUSH2 0xFCC JUMPI DUP3 DUP2 ADD MLOAD DUP3 DUP3 ADD MSTORE PUSH1 0x20 ADD PUSH2 0xFB4 JUMP JUMPDEST POP POP POP DUP1 DUP6 PUSH1 0x20 ADD DUP2 DUP2 MLOAD PUSH2 0xFE1 SWAP2 SWAP1 PUSH2 0x174A JUMP JUMPDEST SWAP1 MSTORE POP SWAP4 SWAP5 SWAP4 POP POP POP POP JUMP JUMPDEST PUSH1 0x40 DUP1 MLOAD DUP1 DUP3 ADD SWAP1 SWAP2 MSTORE PUSH1 0x60 DUP2 MSTORE PUSH0 PUSH1 0x20 DUP3 ADD MSTORE PUSH1 0x7F DUP3 GT PUSH2 0x102C JUMPI PUSH2 0x1014 DUP4 PUSH1 0x1 PUSH2 0x14A2 JUMP JUMPDEST DUP3 MLOAD PUSH1 0x20 DUP5 ADD DUP1 MLOAD PUSH1 0xF8 DUP6 SWAP1 SHL SWAP3 SWAP2 PUSH2 0xC5E DUP3 PUSH2 0x16EC JUMP JUMPDEST PUSH1 0xFF DUP3 GT PUSH2 0x1057 JUMPI PUSH2 0x103F DUP4 PUSH1 0x2 PUSH2 0x14A2 JUMP JUMPDEST DUP3 MLOAD PUSH1 0x20 DUP5 ADD DUP1 MLOAD PUSH1 0x31 PUSH1 0xFA SHL SWAP3 SWAP2 PUSH2 0xCB6 DUP3 PUSH2 0x16EC JUMP JUMPDEST PUSH2 0xFFFF DUP3 GT PUSH2 0x10DE JUMPI PUSH2 0x106B DUP4 PUSH1 0x3 PUSH2 0x14A2 JUMP JUMPDEST DUP3 MLOAD PUSH1 0x20 DUP5 ADD DUP1 MLOAD PUSH1 0xC5 PUSH1 0xF8 SHL SWAP3 SWAP2 PUSH2 0x1083 DUP3 PUSH2 0x16EC JUMP JUMPDEST SWAP1 MSTORE DUP2 MLOAD DUP2 LT PUSH2 0x1095 JUMPI PUSH2 0x1095 PUSH2 0x1736 JUMP JUMPDEST PUSH1 0x20 ADD ADD SWAP1 PUSH1 0x1 PUSH1 0x1 PUSH1 0xF8 SHL SUB NOT AND SWAP1 DUP2 PUSH0 BYTE SWAP1 MSTORE8 POP PUSH1 0x20 DUP4 ADD MLOAD PUSH1 0x20 DUP5 MLOAD ADD ADD DUP3 PUSH1 0x8 SHR DUP2 MSTORE8 DUP3 PUSH1 0x1 DUP3 ADD MSTORE8 POP PUSH1 0x2 DUP4 PUSH1 0x20 ADD DUP2 DUP2 MLOAD PUSH2 0x10D6 SWAP2 SWAP1 PUSH2 0x174A JUMP JUMPDEST SWAP1 MSTORE POP PUSH2 0xDCC JUMP JUMPDEST PUSH4 0xFFFFFFFF DUP3 GT PUSH2 0x1171 JUMPI PUSH2 0x10F4 DUP4 PUSH1 0x5 PUSH2 0x14A2 JUMP JUMPDEST DUP3 MLOAD PUSH1 0x20 DUP5 ADD DUP1 MLOAD PUSH1 0x63 PUSH1 0xF9 SHL SWAP3 SWAP2 PUSH2 0x110C DUP3 PUSH2 0x16EC JUMP JUMPDEST SWAP1 MSTORE DUP2 MLOAD DUP2 LT PUSH2 0x111E JUMPI PUSH2 0x111E PUSH2 0x1736 JUMP JUMPDEST PUSH1 0x20 ADD ADD SWAP1 PUSH1 0x1 PUSH1 0x1 PUSH1 0xF8 SHL SUB NOT AND SWAP1 DUP2 PUSH0 BYTE SWAP1 MSTORE8 POP PUSH1 0x20 DUP4 ADD MLOAD PUSH1 0x20 DUP5 MLOAD ADD ADD DUP3 PUSH1 0x18 SHR DUP2 MSTORE8 DUP3 PUSH1 0x10 SHR PUSH1 0x1 DUP3 ADD MSTORE8 DUP3 PUSH1 0x8 SHR PUSH1 0x2 DUP3 ADD MSTORE8 DUP3 PUSH1 0x3 DUP3 ADD MSTORE8 POP PUSH1 0x4 DUP4 PUSH1 0x20 ADD DUP2 DUP2 MLOAD PUSH2 0x10D6 SWAP2 SWAP1 PUSH2 0x174A JUMP JUMPDEST PUSH8 0xFFFFFFFFFFFFFFFF DUP3 GT PUSH2 0x122C JUMPI PUSH2 0x118B DUP4 PUSH1 0x9 PUSH2 0x14A2 JUMP JUMPDEST DUP3 MLOAD PUSH1 0x20 DUP5 ADD DUP1 MLOAD PUSH1 0xC7 PUSH1 0xF8 SHL SWAP3 SWAP2 PUSH2 0x11A3 DUP3 PUSH2 0x16EC JUMP JUMPDEST SWAP1 MSTORE DUP2 MLOAD DUP2 LT PUSH2 0x11B5 JUMPI PUSH2 0x11B5 PUSH2 0x1736 JUMP JUMPDEST PUSH1 0x20 ADD ADD SWAP1 PUSH1 0x1 PUSH1 0x1 PUSH1 0xF8 SHL SUB NOT AND SWAP1 DUP2 PUSH0 BYTE SWAP1 MSTORE8 POP PUSH1 0x20 DUP4 ADD MLOAD PUSH1 0x20 DUP5 MLOAD ADD ADD DUP3 PUSH1 0x38 SHR DUP2 MSTORE8 DUP3 PUSH1 0x30 SHR PUSH1 0x1 DUP3 ADD MSTORE8 DUP3 PUSH1 0x28 SHR PUSH1 0x2 DUP3 ADD MSTORE8 DUP3 PUSH1 0x20 SHR PUSH1 0x3 DUP3 ADD MSTORE8 DUP3 PUSH1 0x18 SHR PUSH1 0x4 DUP3 ADD MSTORE8 DUP3 PUSH1 0x10 SHR PUSH1 0x5 DUP3 ADD MSTORE8 DUP3 PUSH1 0x8 SHR PUSH1 0x6 DUP3 ADD MSTORE8 DUP3 PUSH1 0x7 DUP3 ADD MSTORE8 POP PUSH1 0x8 DUP4 PUSH1 0x20 ADD DUP2 DUP2 MLOAD PUSH2 0x10D6 SWAP2 SWAP1 PUSH2 0x174A JUMP JUMPDEST PUSH16 0xFFFFFFFFFFFFFFFFFFFFFFFFFFFFFFFF DUP3 GT PUSH2 0x12CE JUMPI PUSH2 0x124E DUP4 PUSH1 0x11 PUSH2 0x14A2 JUMP JUMPDEST DUP3 MLOAD PUSH1 0x20 DUP5 ADD DUP1 MLOAD PUSH1 0x19 PUSH1 0xFB SHL SWAP3 SWAP2 PUSH2 0x1266 DUP3 PUSH2 0x16EC JUMP JUMPDEST SWAP1 MSTORE DUP2 MLOAD DUP2 LT PUSH2 0x1278 JUMPI PUSH2 0x1278 PUSH2 0x1736 JUMP JUMPDEST PUSH1 0x20 ADD ADD SWAP1 PUSH1 0x1 PUSH1 0x1 PUSH1 0xF8 SHL SUB NOT AND SWAP1 DUP2 PUSH0 BYTE SWAP1 MSTORE8 POP PUSH1 0x20 DUP4 ADD MLOAD PUSH1 0x20 DUP5 MLOAD ADD ADD PUSH0 JUMPDEST PUSH1 0x10 DUP2 LT ISZERO PUSH2 0x12B9 JUMPI DUP4 PUSH1 0x8 DUP3 MUL PUSH1 0x78 SUB SHR DUP2 DUP4 ADD MSTORE8 PUSH1 0x1 ADD PUSH2 0x129B JUMP JUMPDEST POP POP PUSH1 0x10 DUP4 PUSH1 0x20 ADD DUP2 DUP2 MLOAD PUSH2 0x10D6 SWAP2 SWAP1 PUSH2 0x174A JUMP JUMPDEST PUSH2 0x12D9 DUP4 PUSH1 0x21 PUSH2 0x14A2 JUMP JUMPDEST DUP3 MLOAD PUSH1 0x20 DUP5 ADD DUP1 MLOAD PUSH1 0xC9 PUSH1 0xF8 SHL SWAP3 SWAP2 PUSH2 0x12F1 DUP3 PUSH2 0x16EC JUMP JUMPDEST SWAP1 MSTORE DUP2 MLOAD DUP2 LT PUSH2 0x1303 JUMPI PUSH2 0x1303 PUSH2 0x1736 JUMP JUMPDEST PUSH1 0x20 ADD ADD SWAP1 PUSH1 0x1 PUSH1 0x1 PUSH1 0xF8 SHL SUB NOT AND SWAP1 DUP2 PUSH0 BYTE SWAP1 MSTORE8 POP PUSH1 0x20 DUP4 DUP2 ADD DUP1 MLOAD DUP6 MLOAD ADD DUP3 ADD DUP5 SWAP1 MSTORE DUP1 MLOAD PUSH2 0x1335 SWAP1 DUP4 SWAP1 PUSH2 0x174A JUMP JUMPDEST SWAP1 MSTORE POP SWAP2 SWAP3 SWAP2 POP POP JUMP JUMPDEST PUSH1 0x60 PUSH0 DUP3 PUSH1 0x20 ADD MLOAD PUSH8 0xFFFFFFFFFFFFFFFF DUP2 GT ISZERO PUSH2 0x135F JUMPI PUSH2 0x135F PUSH2 0x175D JUMP JUMPDEST PUSH1 0x40 MLOAD SWAP1 DUP1 DUP3 MSTORE DUP1 PUSH1 0x1F ADD PUSH1 0x1F NOT AND PUSH1 0x20 ADD DUP3 ADD PUSH1 0x40 MSTORE DUP1 ISZERO PUSH2 0x1389 JUMPI PUSH1 0x20 DUP3 ADD DUP2 DUP1 CALLDATASIZE DUP4 CALLDATACOPY ADD SWAP1 POP JUMPDEST POP SWAP1 POP PUSH1 0x20 DUP4 MLOAD ADD PUSH1 0x20 DUP3 ADD PUSH1 0x20 DUP6 ADD MLOAD PUSH0 JUMPDEST DUP2 DUP2 LT ISZERO PUSH2 0x13B4 JUMPI DUP4 DUP2 ADD MLOAD DUP4 DUP3 ADD MSTORE PUSH1 0x20 ADD PUSH2 0x139C JUMP JUMPDEST POP SWAP3 SWAP6 SWAP5 POP POP POP POP POP JUMP JUMPDEST PUSH1 0x40 DUP1 MLOAD DUP1 DUP3 ADD SWAP1 SWAP2 MSTORE PUSH1 0x60 DUP2 MSTORE PUSH0 PUSH1 0x20 DUP3 ADD MSTORE PUSH1 0xF DUP3 GT PUSH2 0x13F1 JUMPI PUSH2 0x13E6 DUP4 PUSH1 0x1 PUSH2 0x14A2 JUMP JUMPDEST PUSH2 0xC45 DUP3 PUSH1 0x90 PUSH2 0x174A JUMP JUMPDEST PUSH1 0xFF DUP3 GT PUSH2 0x141C JUMPI PUSH2 0x1404 DUP4 PUSH1 0x2 PUSH2 0x14A2 JUMP JUMPDEST DUP3 MLOAD PUSH1 0x20 DUP5 ADD DUP1 MLOAD PUSH1 0x6B PUSH1 0xF9 SHL SWAP3 SWAP2 PUSH2 0xCB6 DUP3 PUSH2 0x16EC JUMP JUMPDEST PUSH2 0x1427 DUP4 PUSH1 0x3 PUSH2 0x14A2 JUMP JUMPDEST DUP3 MLOAD PUSH1 0x20 DUP5 ADD DUP1 MLOAD PUSH1 0xD7 PUSH1 0xF8 SHL SWAP3 SWAP2 PUSH2 0xD19 DUP3 PUSH2 0x16EC JUMP JUMPDEST PUSH0 DUP2 PUSH0 ADD MLOAD MLOAD DUP3 PUSH1 0x20 ADD MLOAD LT PUSH2 0x147D JUMPI PUSH1 0x40 MLOAD PUSH3 0x461BCD PUSH1 0xE5 SHL DUP2 MSTORE PUSH1 0x20 PUSH1 0x4 DUP3 ADD MSTORE PUSH1 0x3 PUSH1 0x24 DUP3 ADD MSTORE PUSH3 0x22A7A3 PUSH1 0xE9 SHL PUSH1 0x44 DUP3 ADD MSTORE PUSH1 0x64 ADD PUSH2 0x185 JUMP JUMPDEST DUP2 MLOAD PUSH1 0x20 DUP4 ADD MLOAD DUP2 MLOAD DUP2 LT PUSH2 0x1494 JUMPI PUSH2 0x1494 PUSH2 0x1736 JUMP JUMPDEST ADD PUSH1 0x20 ADD MLOAD PUSH1 0xF8 SHR SWAP3 SWAP2 POP POP JUMP JUMPDEST PUSH0 DUP2 DUP4 PUSH1 0x20 ADD MLOAD PUSH2 0x14B3 SWAP2 SWAP1 PUSH2 0x174A JUMP JUMPDEST DUP4 MLOAD MLOAD SWAP1 SWAP2 POP DUP2 GT PUSH2 0x14C4 JUMPI POP POP POP JUMP JUMPDEST DUP3 MLOAD MLOAD PUSH0 PUSH2 0x1000 DUP3 LT ISZERO PUSH2 0x1508 JUMPI PUSH1 0x2 PUSH2 0x14DF DUP4 PUSH1 0x3 PUSH2 0x1771 JUMP JUMPDEST PUSH2 0x14E9 SWAP2 SWAP1 PUSH2 0x1788 JUMP JUMPDEST SWAP1 POP DUP3 DUP2 LT ISZERO PUSH2 0x14F6 JUMPI POP DUP2 JUMPDEST PUSH2 0x1501 PUSH1 0x80 DUP3 PUSH2 0x174A JUMP JUMPDEST SWAP1 POP PUSH2 0x153F JUMP JUMPDEST PUSH0 PUSH2 0x1513 DUP4 DUP6 PUSH2 0x17A7 JUMP JUMPDEST SWAP1 POP PUSH0 PUSH2 0x1521 PUSH1 0x4 DUP4 PUSH2 0x1788 JUMP JUMPDEST SWAP1 POP PUSH1 0x80 DUP2 LT ISZERO PUSH2 0x1530 JUMPI POP PUSH1 0x80 JUMPDEST PUSH2 0x153A DUP2 DUP7 PUSH2 0x174A JUMP JUMPDEST SWAP3 POP POP POP JUMPDEST PUSH0 DUP2 PUSH8 0xFFFFFFFFFFFFFFFF DUP2 GT ISZERO PUSH2 0x1559 JUMPI PUSH2 0x1559 PUSH2 0x175D JUMP JUMPDEST PUSH1 0x40 MLOAD SWAP1 DUP1 DUP3 MSTORE DUP1 PUSH1 0x1F ADD PUSH1 0x1F NOT AND PUSH1 0x20 ADD DUP3 ADD PUSH1 0x40 MSTORE DUP1 ISZERO PUSH2 0x1583 JUMPI PUSH1 0x20 DUP3 ADD DUP2 DUP1 CALLDATASIZE DUP4 CALLDATACOPY ADD SWAP1 POP JUMPDEST POP SWAP1 POP PUSH1 0x20 DUP7 MLOAD ADD PUSH1 0x20 DUP3 ADD PUSH1 0x20 DUP9 ADD MLOAD PUSH0 JUMPDEST DUP2 DUP2 LT ISZERO PUSH2 0x15AE JUMPI DUP4 DUP2 ADD MLOAD DUP4 DUP3 ADD MSTORE PUSH1 0x20 ADD PUSH2 0x1596 JUMP JUMPDEST POP POP POP SWAP6 MSTORE POP POP POP POP POP JUMP JUMPDEST PUSH0 DUP2 MLOAD DUP1 DUP5 MSTORE PUSH0 JUMPDEST DUP2 DUP2 LT ISZERO PUSH2 0x15DE JUMPI PUSH1 0x20 DUP2 DUP6 ADD DUP2 ADD MLOAD DUP7 DUP4 ADD DUP3 ADD MSTORE ADD PUSH2 0x15C2 JUMP JUMPDEST POP PUSH0 PUSH1 0x20 DUP3 DUP7 ADD ADD MSTORE PUSH1 0x20 PUSH1 0x1F NOT PUSH1 0x1F DUP4 ADD AND DUP6 ADD ADD SWAP2 POP POP SWAP3 SWAP2 POP POP JUMP JUMPDEST DUP6 DUP2 MSTORE DUP5 PUSH1 0x20 DUP3 ADD MSTORE DUP4 ISZERO ISZERO PUSH1 0x40 DUP3 ADD MSTORE DUP3 PUSH1 0x60 DUP3 ADD MSTORE PUSH1 0xA0 PUSH1 0x80 DUP3 ADD MSTORE PUSH0 PUSH2 0x1629 PUSH1 0xA0 DUP4 ADD DUP5 PUSH2 0x15BA JUMP JUMPDEST SWAP8 SWAP7 POP POP POP POP POP POP POP JUMP JUMPDEST PUSH1 0x80 DUP2 MSTORE PUSH0 PUSH2 0x1646 PUSH1 0x80 DUP4 ADD DUP8 PUSH2 0x15BA JUMP JUMPDEST DUP3 DUP2 SUB PUSH1 0x20 DUP5 ADD MSTORE PUSH2 0x1658 DUP2 DUP8 PUSH2 0x15BA JUMP JUMPDEST SWAP1 POP DUP3 DUP2 SUB PUSH1 0x40 DUP5 ADD MSTORE PUSH2 0x166C DUP2 DUP7 PUSH2 0x15BA JUMP JUMPDEST SWAP2 POP POP DUP3 ISZERO ISZERO PUSH1 0x60 DUP4 ADD MSTORE SWAP6 SWAP5 POP POP POP POP POP JUMP JUMPDEST PUSH1 0x20 DUP2 MSTORE PUSH0 PUSH2 0x1692 PUSH1 0x20 DUP4 ADD DUP5 PUSH2 0x15BA JUMP JUMPDEST SWAP4 SWAP3 POP POP POP JUMP JUMPDEST DUP7 DUP2 MSTORE DUP6 PUSH1 0x20 DUP3 ADD MSTORE DUP5 PUSH1 0x40 DUP3 ADD MSTORE DUP4 ISZERO ISZERO PUSH1 0x60 DUP3 ADD MSTORE PUSH1 0xC0 PUSH1 0x80 DUP3 ADD MSTORE PUSH0 PUSH2 0x16C5 PUSH1 0xC0 DUP4 ADD DUP6 PUSH2 0x15BA JUMP JUMPDEST SWAP1 POP DUP3 PUSH1 0xA0 DUP4 ADD MSTORE SWAP8 SWAP7 POP POP POP POP POP POP POP JUMP JUMPDEST PUSH4 0x4E487B71 PUSH1 0xE0 SHL PUSH0 MSTORE PUSH1 0x11 PUSH1 0x4 MSTORE PUSH1 0x24 PUSH0 REVERT JUMPDEST PUSH0 PUSH1 0x1 DUP3 ADD PUSH2 0x16FD JUMPI PUSH2 0x16FD PUSH2 0x16D8 JUMP JUMPDEST POP PUSH1 0x1 ADD SWAP1 JUMP JUMPDEST PUSH1 0xFF DUP2 DUP2 AND DUP4 DUP3 AND ADD SWAP1 DUP2 GT ISZERO PUSH2 0xDCF JUMPI PUSH2 0xDCF PUSH2 0x16D8 JUMP JUMPDEST PUSH1 0xFF DUP3 DUP2 AND DUP3 DUP3 AND SUB SWAP1 DUP2 GT ISZERO PUSH2 0xDCF JUMPI PUSH2 0xDCF PUSH2 0x16D8 JUMP JUMPDEST PUSH4 0x4E487B71 PUSH1 0xE0 SHL PUSH0 MSTORE PUSH1 0x32 PUSH1 0x4 MSTORE PUSH1 0x24 PUSH0 REVERT JUMPDEST DUP1 DUP3 ADD DUP1 DUP3 GT ISZERO PUSH2 0xDCF JUMPI PUSH2 0xDCF PUSH2 0x16D8 JUMP JUMPDEST PUSH4 0x4E487B71 PUSH1 0xE0 SHL PUSH0 MSTORE PUSH1 0x41 PUSH1 0x4 MSTORE PUSH1 0x24 PUSH0 REVERT JUMPDEST DUP1 DUP3 MUL DUP2 ISZERO DUP3 DUP3 DIV DUP5 EQ OR PUSH2 0xDCF JUMPI PUSH2 0xDCF PUSH2 0x16D8 JUMP JUMPDEST PUSH0 DUP3 PUSH2 0x17A2 JUMPI PUSH4 0x4E487B71 PUSH1 0xE0 SHL PUSH0 MSTORE PUSH1 0x12 PUSH1 0x4 MSTORE PUSH1 0x24 PUSH0 REVERT JUMPDEST POP DIV SWAP1 JUMP JUMPDEST DUP2 DUP2 SUB DUP2 DUP2 GT ISZERO PUSH2 0xDCF JUMPI PUSH2 0xDCF PUSH2 0x16D8 JUMP INVALID LOG2 PUSH5 0x6970667358 0x22 SLT KECCAK256 DUP13 PUSH9 0x86BD205E2E347076C5 PC SWAP3 0xBE DUP15 0x4D RETURN DUP15 0xDC 0xB8 0xCF POP MULMOD 0xA9 STATICCALL SSTORE PUSH23 0x78F0D6890964736F6C6343000814003300000000000000 "},"methodIdentifiers":{"decodeMapThenMoreData()":"3578fce7","decodeMismatchedCount()":"bd1a9b65","demonstrateSequentialEncoding()":"3b996f2e","encodeMapThenMoreData()":"faf193e9","encodeMismatchedCount()":"daad53d8","encodeProperlyWithArray()":"9de023a0","encodeProperlyWithOuterMap()":"71eca3f9"}}}}}