{
  "_format": "hh3-artifact-1",
  "contractName": "NestedStructuresExample",
  "sourceName": "contracts/examples/NestedStructuresExample.sol",
  "abi": [
    {
      "inputs": [],
      "name": "decodeComplexAndExtractTags",
      "outputs": [
        {
          "internalType": "string",
          "name": "firstTag",
          "type": "string"
        },
        {
          "internalType": "string",
          "name": "secondTag",
          "type": "string"
        },
        {
          "internalType": "bool",
          "name": "foundTags",
          "type": "bool"
        }
      ],
      "stateMutability": "pure",
      "type": "function"
    },
    {
      "inputs": [],
      "name": "decodeMapWithArrayUsingInspection",
      "outputs": [
        {
          "internalType": "string",
          "name": "name",
          "type": "string"
        },
        {
          "internalType": "uint256",
          "name": "firstScore",
          "type": "uint256"
        },
        {
          "internalType": "uint256",
          "name": "scoresCount",
          "type": "uint256"
        }
      ],
      "stateMutability": "pure",
      "type": "function"
    },
    {
      "inputs": [],
      "name": "decodeNestedMapStepByStep",
      "outputs": [
        {
          "internalType": "uint256",
          "name": "outerValue",
          "type": "uint256"
        },
        {
          "internalType": "uint256",
          "name": "nestedInner",
          "type": "uint256"
        },
        {
          "internalType": "string",
          "name": "nestedName",
          "type": "string"
        }
      ],
      "stateMutability": "pure",
      "type": "function"
    },
    {
      "inputs": [],
      "name": "decodeUnknownStructureWithSkip",
      "outputs": [
        {
          "internalType": "uint256",
          "name": "id",
          "type": "uint256"
        },
        {
          "internalType": "uint256",
          "name": "count",
          "type": "uint256"
        }
      ],
      "stateMutability": "pure",
      "type": "function"
    },
    {
      "inputs": [],
      "name": "encodeComplexNesting",
      "outputs": [
        {
          "internalType": "bytes",
          "name": "",
          "type": "bytes"
        }
      ],
      "stateMutability": "pure",
      "type": "function"
    },
    {
      "inputs": [],
      "name": "encodeMapWithArray",
      "outputs": [
        {
          "internalType": "bytes",
          "name": "",
          "type": "bytes"
        }
      ],
      "stateMutability": "pure",
      "type": "function"
    },
    {
      "inputs": [],
      "name": "encodeNestedMap",
      "outputs": [
        {
          "internalType": "bytes",
          "name": "",
          "type": "bytes"
        }
      ],
      "stateMutability": "pure",
      "type": "function"
    }
  ],
  "bytecode": "0x608060405234801561000f575f80fd5b506126218061001d5f395ff3fe608060405234801561000f575f80fd5b506004361061007a575f3560e01c80634b5b7341116100585780634b5b7341146100ca578063652ac576146100d257806374f57d40146100e9578063c1b5ec0014610106575f80fd5b80631abb8e2c1461007e5780634686a7431461009e5780634ae99edc146100b3575b5f80fd5b61008661010e565b6040516100959392919061245a565b60405180910390f35b6100a6610286565b604051610095919061247e565b6100bb610399565b60405161009593929190612497565b6100a661060c565b6100da6106cc565b604051610095939291906124be565b6100f161083e565b60408051928352602083019190915201610095565b6100a6610934565b60605f805f61011b61060c565b604080518082018252606081525f602091820181905282518084019093528383529082018190529192509061014f82610a94565b90505f5b8181101561027d575f61016584610bf3565b90507f2361458367e696363fbcc70777d07ebbd2394e89fd0adcaf147faccd1d294d608180519060200120036101a55761019e84610bf3565b975061026a565b805160208201207f3e2b5d90d4c60ae46e3fe89fcc828886238e60ead515c8e9eeb0a6d797c7a18a01610261576101dd846006610e18565b61021f5760405162461bcd60e51b815260206004820152600e60248201526d457870656374656420617272617960901b60448201526064015b60405180910390fd5b61022884610e65565b955061023384610f2c565b965060015b8681101561025b5761024985611113565b8061025381612509565b915050610238565b5061026a565b61026a84611113565b508061027581612509565b915050610153565b50505050909192565b60605f610291611745565b905061029e81600261178a565b506102c6816040518060400160405280600581526020016437baba32b960d91b81525061194a565b506102d281602a611b62565b506102fb81604051806040016040528060068152602001651b995cdd195960d21b81525061194a565b5061030781600261178a565b5061032f816040518060400160405280600581526020016434b73732b960d91b81525061194a565b5061033b816064611b62565b5061036281604051806040016040528060048152602001636e616d6560e01b81525061194a565b5061038981604051806040016040528060048152602001631d195cdd60e21b81525061194a565b5061039381611eb4565b91505090565b5f8060605f6103a6610286565b604080518082018252606081525f60209182018190528251808401909352838352908201819052919250906103da82610a94565b9050806002146104215760405162461bcd60e51b81526020600482015260126024820152714578706563746564203220656e747269657360701b6044820152606401610216565b5f61042b83610bf3565b90507fbd499fc997e96d0b6f6290e7a2f0fdf5178d7d1ee10d32540d79bec21ccfaa898180519060200120146104965760405162461bcd60e51b815260206004820152601060248201526f457870656374656420276f757465722760801b6044820152606401610216565b61049f83610f2c565b96505f6104ab84610bf3565b90507f4d5b14044d78fbf0c9dd8b9c49e35f09ee5a6f5b1b3b8117b5d0e15c8dd2cb098180519060200120146105175760405162461bcd60e51b8152602060048201526011602482015270457870656374656420276e65737465642760781b6044820152606401610216565b5f61052185611f34565b9050600781600981111561053757610537612521565b1461057a5760405162461bcd60e51b815260206004820152601360248201527204578706563746564206e6573746564206d617606c1b6044820152606401610216565b5f61058486610a94565b9050806002146105d65760405162461bcd60e51b815260206004820152601960248201527f45787065637465642032206e657374656420656e7472696573000000000000006044820152606401610216565b6105df86610bf3565b506105e986610f2c565b98506105f486610bf3565b506105fe86610bf3565b975050505050505050909192565b60605f610617611745565b905061062481600261178a565b5061064b81604051806040016040528060048152602001636e616d6560e01b81525061194a565b506106738160405180604001604052806005815260200164416c69636560d81b81525061194a565b5061069c816040518060400160405280600681526020016573636f72657360d01b81525061194a565b506106a88160036121d5565b506106b481600a611b62565b506106c0816014611b62565b5061038981601e611b62565b6060805f806106d9610934565b604080518082018252606081525f602091820181905282518084019093528383529082018190529192509061070d82610a94565b90505f5b8181101561027d575f61072384610bf3565b90507f8f54f1c2d0eb5771cd5bf67a6689fcd6eed9444d91a39e5ef32a9b4ae5ca14ff818051906020012003610822575f61075d85610a94565b90505f5b8181101561081b575f61077387610bf3565b90507f13f2570a4f3752e83e37ff7e082b475a97035ff53694ee2548f36573f6a5d8bc8180519060200120036107ff575f6107ad88610e65565b9050600281106107f9576107c088610bf3565b9b506107cb88610bf3565b9a506001995060025b818110156107f7576107e589611113565b806107ef81612509565b9150506107d4565b505b50610808565b61080887611113565b508061081381612509565b915050610761565b505061082b565b61082b84611113565b508061083681612509565b915050610711565b5f805f610849610934565b604080518082018252606081525f602091820181905282518084019093528383529082018190529192509061087d82610a94565b90505f5b8181101561092c575f61089384610bf3565b90507fa709fd3aa96d9faf770e44a5aef2f4808a6fe3a5ddf546568f36ad3a3873f31d8180519060200120036108d3576108cc84610f2c565b9650610919565b805160208201207f37dcf94954e4b398bd6bbd014e192dc7eca5930355b8e5fe4f1cc90fe4fb71c8016109105761090984610f2c565b9550610919565b61091984611113565b508061092481612509565b915050610881565b505050509091565b60605f61093f611745565b905061094c81600361178a565b5061097181604051806040016040528060028152602001611a5960f21b81525061194a565b5061097d816001611b62565b506109a481604051806040016040528060048152602001636461746160e01b81525061194a565b506109b081600261178a565b506109d781604051806040016040528060048152602001637461677360e01b81525061194a565b506109e38160026121d5565b50610a0781604051806040016040528060018152602001606160f81b81525061194a565b50610a2b81604051806040016040528060018152602001603160f91b81525061194a565b50610a54816040518060400160405280600681526020016561637469766560d01b81525061194a565b50610a60816001612255565b50610a88816040518060400160405280600581526020016418dbdd5b9d60da1b81525061194a565b50610389816005611b62565b5f80610a9f8361229c565b602084018051919250610ab182612509565b905250608060ff821610801590610ad85750610acf60806010612535565b60ff168160ff16105b15610af257610ae860808261254e565b60ff169392505050565b60d71960ff821601610b3157825160208401805190610b1082612509565b905281518110610b2257610b22612567565b016020015160f81c9392505050565b60d81960ff821601610bc157825160208401515f9190610b5290600161257b565b81518110610b6257610b62612567565b602001015160f81c60f81b60f81c60ff166008855f0151866020015181518110610b8e57610b8e612567565b602001015160f81c60f81b60f81c60ff16901b179050600284602001818151610bb7919061257b565b9052509392505050565b60405162461bcd60e51b815260206004820152600760248201526604e6f74206d61760cc1b6044820152606401610216565b60605f610bff8361229c565b602084018051919250610c1182612509565b9052505f60a060ff831610801590610c395750610c3060a06020612535565b60ff168260ff16105b15610c5357610c4960a08361254e565b60ff169050610d52565b60d11960ff831601610c9257835160208501805190610c7182612509565b905281518110610c8357610c83612567565b016020015160f81c9050610d52565b60d21960ff831601610d1d5783516020850151610cb090600161257b565b81518110610cc057610cc0612567565b602001015160f81c60f81b60f81c60ff166008855f0151866020015181518110610cec57610cec612567565b602001015160f81c60f81b60f81c60ff16901b179050600284602001818151610d15919061257b565b905250610d52565b60405162461bcd60e51b815260206004820152600a6024820152694e6f7420737472696e6760b01b6044820152606401610216565b5f8167ffffffffffffffff811115610d6c57610d6c61258e565b6040519080825280601f01601f191660200182016040528015610d96576020820181803683370190505b509050602085015160208651010160208201602084045f5b81811015610dca57602081028481015190840152600101610dae565b50601f85168015610df757602082028481015160016008840290811b5f1901610100919091031b16908401525b505050508185602001818151610e0d919061257b565b905250949350505050565b5f825f015151836020015110610e2f57505f610e5f565b816009811115610e4157610e41612521565b610e4a84611f34565b6009811115610e5b57610e5b612521565b1490505b92915050565b5f80610e708361229c565b602084018051919250610e8282612509565b905250609060ff821610801590610ea95750610ea060906010612535565b60ff168160ff16105b15610eb957610ae860908261254e565b60d51960ff821601610ed757825160208401805190610b1082612509565b60d61960ff821601610ef857825160208401515f9190610b5290600161257b565b60405162461bcd60e51b81526020600482015260096024820152684e6f7420617272617960b81b6044820152606401610216565b5f80610f378361229c565b602084018051919250610f4982612509565b905250607f60ff821611610f605760ff1692915050565b60c31960ff821601610f7e57825160208401805190610b1082612509565b60c41960ff821601610fbb575f602084015160208551010160018101515f1a81515f1a60081b17915050600284602001818151610bb7919061257b565b60c51960ff82160161100e575f602084015160208551010160038101515f1a60028201515f1a60081b60018301515f1a60101b83515f1a60181b171717915050600484602001818151610bb7919061257b565b60c61960ff82160161105f5760208381015184515f92910101815b600881101561104a57808201515f1a8360081b179250600181019050611029565b5050600884602001818151610bb7919061257b565b60c71960ff8216016110b05760208381015184515f92910101815b601081101561109b57808201515f1a8360081b17925060018101905061107a565b5050601084602001818151610bb7919061257b565b60c81960ff8216016110d8576020838101805185518101830151929190610bb790839061257b565b60405162461bcd60e51b815260206004820152601060248201526f496e76616c69642075696e742074616760801b6044820152606401610216565b5f61111d8261229c565b60208301805191925061112f82612509565b905250607f60ff8216111580611149575060e060ff821610155b15611152575050565b60a060ff821610801590611176575061116d60a06020612535565b60ff168160ff16105b156111a15761118660a08261254e565b60ff168260200181815161119a919061257b565b9052505050565b609060ff8216108015906111c557506111bc60906010612535565b60ff168160ff16105b15611206575f6111d660908361254e565b60ff1690505f5b81811015611200576111ee84611113565b806111f881612509565b9150506111dd565b50505050565b608060ff82161080159061122a575061122160806010612535565b60ff168160ff16105b1561126f575f61123b60808361254e565b60ff1690505f5b61124d8260026125a2565b8110156112005761125d84611113565b8061126781612509565b915050611242565b60ff811660c01480611284575060ff811660c3145b80611292575060ff811660c2145b6117415760ff811660c414806112ab575060ff811660ca145b156112c35760018260200181815161119a919061257b565b60ff811660c514806112d8575060ff811660cb145b156112f05760028260200181815161119a919061257b565b60ff811660c61480611305575060ff811660cc145b1561131d5760048260200181815161119a919061257b565b60ff811660c71480611332575060ff811660cd145b1561134a5760088260200181815161119a919061257b565b60ff811660c8148061135f575060ff811660ce145b156113775760108260200181815161119a919061257b565b60ff811660c9148061138c575060ff811660cf145b8061139a575060ff811660d5145b156113b25760208260200181815161119a919061257b565b60d31960ff8216016113d15760148260200181815161119a919061257b565b60ff811660d014806113e6575060ff811660d2145b156114405781516020830180515f92916113ff82612509565b90528151811061141157611411612567565b602001015160f81c60f81b60f81c60ff1690508083602001818151611436919061257b565b9052506117419050565b60ff811660d11480611455575060ff811660d3145b156114d457815160208301515f919061146f90600161257b565b8151811061147f5761147f612567565b602001015160f81c60f81b60f81c60ff166008845f01518560200151815181106114ab576114ab612567565b016020015160f81c901b1790506114c381600261257b565b83602001818151611436919061257b565b60d51960ff8216016115355781516020830180515f92916114f482612509565b90528151811061150657611506612567565b016020015160f81c90505f5b818110156112005761152384611113565b8061152d81612509565b915050611512565b60d61960ff8216016115e357815160208301515f919061155690600161257b565b8151811061156657611566612567565b602001015160f81c60f81b60f81c60ff166008845f015185602001518151811061159257611592612567565b602001015160f81c60f81b60f81c60ff16901b1790506002836020018181516115bb919061257b565b9052505f5b81811015611200576115d184611113565b806115db81612509565b9150506115c0565b60d71960ff82160161164e5781516020830180515f929161160382612509565b90528151811061161557611615612567565b016020015160f81c90505f5b61162c8260026125a2565b8110156112005761163c84611113565b8061164681612509565b915050611621565b60d81960ff82160161170657815160208301515f919061166f90600161257b565b8151811061167f5761167f612567565b602001015160f81c60f81b60f81c60ff166008845f01518560200151815181106116ab576116ab612567565b602001015160f81c60f81b60f81c60ff16901b1790506002836020018181516116d4919061257b565b9052505f5b6116e48260026125a2565b811015611200576116f484611113565b806116fe81612509565b9150506116d9565b60405162461bcd60e51b815260206004820152601060248201526f556e6b6e6f776e20747970652074616760801b6044820152606401610216565b5050565b60408051808201825260608082525f6020830152825161010081850181815261016083019095529293909283928301818036833750505081525f602090910152919050565b60408051808201909152606081525f6020820152600f8211611802576117b18360016122ff565b6117bc82608061257b565b60f81b835f01518460200180518091906117d590612509565b9052815181106117e7576117e7612567565b60200101906001600160f81b03191690815f1a905350611943565b60ff821161186d576118158360026122ff565b8251602084018051601b60fb1b929161182d82612509565b90528151811061183f5761183f612567565b60200101906001600160f81b03191690815f1a905350825160208401805160f885901b92916117d582612509565b6118788360036122ff565b825160208401805160d960f81b929161189082612509565b9052815181106118a2576118a2612567565b60200101906001600160f81b03191690815f1a90535082516020840180516001600160f81b031960f086901b1692916118da82612509565b9052815181106118ec576118ec612567565b60200101906001600160f81b03191690815f1a905350825160208401805160f885901b929161191a82612509565b90528151811061192c5761192c612567565b60200101906001600160f81b03191690815f1a9053505b5090919050565b60408051808201909152606081525f602082015281518290601f81116119cf5761197e8561197983600161257b565b6122ff565b6119898160a061257b565b60f81b855f01518660200180518091906119a290612509565b9052815181106119b4576119b4612567565b60200101906001600160f81b03191690815f1a905350611b18565b60ff8111611a3e576119e68561197983600261257b565b8451602086018051606960f91b92916119fe82612509565b905281518110611a1057611a10612567565b60200101906001600160f81b03191690815f1a905350845160208601805160f884901b92916119a282612509565b611a4d8561197983600361257b565b845160208601805160d360f81b9291611a6582612509565b905281518110611a7757611a77612567565b60200101906001600160f81b03191690815f1a90535084516020860180516001600160f81b031960f085901b169291611aaf82612509565b905281518110611ac157611ac1612567565b60200101906001600160f81b03191690815f1a905350845160208601805160f884901b9291611aef82612509565b905281518110611b0157611b01612567565b60200101906001600160f81b03191690815f1a9053505b6020820160208601516020875101015f5b83811015611b41578281015182820152602001611b29565b5050508085602001818151611b56919061257b565b90525093949350505050565b60408051808201909152606081525f6020820152607f8211611ba157611b898360016122ff565b825160208401805160f885901b92916117d582612509565b60ff8211611bcc57611bb48360026122ff565b8251602084018051603160fa1b929161182d82612509565b61ffff8211611c5357611be08360036122ff565b825160208401805160c560f81b9291611bf882612509565b905281518110611c0a57611c0a612567565b60200101906001600160f81b03191690815f1a90535060208301516020845101018260081c815382600182015350600283602001818151611c4b919061257b565b905250611943565b63ffffffff8211611ce657611c698360056122ff565b8251602084018051606360f91b9291611c8182612509565b905281518110611c9357611c93612567565b60200101906001600160f81b03191690815f1a90535060208301516020845101018260181c81538260101c60018201538260081c600282015382600382015350600483602001818151611c4b919061257b565b67ffffffffffffffff8211611da157611d008360096122ff565b825160208401805160c760f81b9291611d1882612509565b905281518110611d2a57611d2a612567565b60200101906001600160f81b03191690815f1a90535060208301516020845101018260381c81538260301c60018201538260281c60028201538260201c60038201538260181c60048201538260101c60058201538260081c600682015382600782015350600883602001818151611c4b919061257b565b6fffffffffffffffffffffffffffffffff8211611e4357611dc38360116122ff565b8251602084018051601960fb1b9291611ddb82612509565b905281518110611ded57611ded612567565b60200101906001600160f81b03191690815f1a90535060208301516020845101015f5b6010811015611e2e5783600882026078031c81830153600101611e10565b5050601083602001818151611c4b919061257b565b611e4e8360216122ff565b825160208401805160c960f81b9291611e6682612509565b905281518110611e7857611e78612567565b60200101906001600160f81b03191690815f1a9053506020838101805185510182018490528051611eaa90839061257b565b9052509192915050565b60605f826020015167ffffffffffffffff811115611ed457611ed461258e565b6040519080825280601f01601f191660200182016040528015611efe576020820181803683370190505b50905060208351016020820160208501515f5b81811015611f29578381015183820152602001611f11565b509295945050505050565b5f815f015151826020015110611f725760405162461bcd60e51b815260206004820152600360248201526222a7a360e91b6044820152606401610216565b5f825f0151836020015181518110611f8c57611f8c612567565b016020015160f81c905060bf198101611fa757505f92915050565b60ff811660c31480611fbc575060ff811660c2145b15611fca5750600192915050565b607f60ff8216111580611fe0575060ff811660c4145b80611fee575060ff811660c5145b80611ffc575060ff811660c6145b8061200a575060ff811660c7145b80612018575060ff811660c8145b80612026575060ff811660c9145b156120345750600292915050565b60e060ff821610158061204a575060ff811660ca145b80612058575060ff811660cb145b80612066575060ff811660cc145b80612074575060ff811660cd145b80612082575060ff811660ce145b80612090575060ff811660cf145b1561209e5750600392915050565b60ff811660d014806120b3575060ff811660d1145b156120c15750600492915050565b60a060ff8216108015906120e557506120dc60a06020612535565b60ff168160ff16105b806120f3575060ff811660d2145b80612101575060ff811660d3145b1561210f5750600592915050565b609060ff821610801590612133575061212a60906010612535565b60ff168160ff16105b80612141575060ff811660d6145b8061214f575060ff811660d7145b1561215d5750600692915050565b608060ff821610801590612181575061217860806010612535565b60ff168160ff16105b8061218f575060ff811660d8145b8061219d575060ff811660d9145b156121ab5750600792915050565b60d31960ff8216016121c05750600892915050565b60d41960ff8216016117065750600992915050565b60408051808201909152606081525f6020820152600f8211612207576121fc8360016122ff565b6117bc82609061257b565b60ff82116122325761221a8360026122ff565b8251602084018051606b60f91b929161182d82612509565b61223d8360036122ff565b825160208401805160d760f81b929161189082612509565b60408051808201909152606081525f60208201526122748360016122ff565b816122805760c2612283565b60c35b60f81b835f015184602001805180919061191a90612509565b5f815f0151518260200151106122da5760405162461bcd60e51b815260206004820152600360248201526222a7a360e91b6044820152606401610216565b81516020830151815181106122f1576122f1612567565b016020015160f81c92915050565b5f818360200151612310919061257b565b835151909150811161232157505050565b8251515f61100082101561236557600261233c8360036125a2565b61234691906125b9565b9050828110156123535750815b61235e60808261257b565b905061239c565b5f61237083856125d8565b90505f61237e6004836125b9565b9050608081101561238d575060805b612397818661257b565b925050505b5f8167ffffffffffffffff8111156123b6576123b661258e565b6040519080825280601f01601f1916602001820160405280156123e0576020820181803683370190505b50905060208651016020820160208801515f5b8181101561240b5783810151838201526020016123f3565b50505095525050505050565b5f81518084525f5b8181101561243b5760208185018101518683018201520161241f565b505f602082860101526020601f19601f83011685010191505092915050565b606081525f61246c6060830186612417565b60208301949094525060400152919050565b602081525f6124906020830184612417565b9392505050565b838152826020820152606060408201525f6124b56060830184612417565b95945050505050565b606081525f6124d06060830186612417565b82810360208401526124e28186612417565b9150508215156040830152949350505050565b634e487b7160e01b5f52601160045260245ffd5b5f6001820161251a5761251a6124f5565b5060010190565b634e487b7160e01b5f52602160045260245ffd5b60ff8181168382160190811115610e5f57610e5f6124f5565b60ff8281168282160390811115610e5f57610e5f6124f5565b634e487b7160e01b5f52603260045260245ffd5b80820180821115610e5f57610e5f6124f5565b634e487b7160e01b5f52604160045260245ffd5b8082028115828204841417610e5f57610e5f6124f5565b5f826125d357634e487b7160e01b5f52601260045260245ffd5b500490565b81810381811115610e5f57610e5f6124f556fea26469706673582212207c328b99f039d7354e8e58ec7eeeb3cf4901f3583044ec0ab7bab92fe299f88164736f6c63430008140033",
  "linkReferences": {},
  "deployedLinkReferences": {},
  "immutableReferences": {},
  "inputSourceName": "project/contracts/examples/NestedStructuresExample.sol",
  "buildInfoId": "solc-0_8_20-90927a1007527ec9bee6847ac7a328cb72727541"
}